:100000000C942A000C9447000C9447000C94470071
:100010000C9447000C9447000C9447000C94470044
:100020000C9447000C9447000C9447000C94470034
:100030000C9447000C9447000C9447000C94470024
:100040000C9447000C9447000C9447000C94470014
:100050000C94470011241FBECFE5D8E0DEBFCDBF12
:1000600010E0A0E6B0E0EAE2F2E002C005900D92F6
:10007000AE36B107D9F720E0AEE6B0E001C01D9280
:10008000A437B207E1F70E94FD000C9413010C9411
:100090000000DA98DB9A2BB3982F907F2F70922B69
:1000A0009BBB34E03A95F1F7DB98E4E1F1E031975E
:1000B000F1F70000DB9A2BB3F0E18F9FC001112410
:1000C0002F70282B2BBB34E03A95F1F7DB9884E1B5
:1000D00091E00197F1F70000089581E00E94490046
:1000E00089E995E10197F1F700C008958FEF8ABB88
:1000F0001BBA2FEF8FEA91E0215080409040E1F74A
:1001000000C00000DA9893E0DB9A8BB38F708063B5
:100110008BBBE4E0EA95F1F7DB98EFEFF5E331977D
:10012000F1F700C00000915079F7DB9A8BB38F7024
:1001300080628BBBF4E0FA95F1F7DB9884E191E003
:100140000197F1F7000088E20E9449008CE00E94CC
:10015000490086E00E9449000C946D00DA9ADB9A0F
:100160002BB3982F907F2F70922B9BBB34E03A9546
:10017000F1F7DB98E4E1F1E03197F1F70000DB9A69
:100180002BB3F0E18F9FC00111242F70282B2BBBC4
:1001900034E03A95F1F7DB9884E191E00197F1F7CB
:1001A00000000895605890E4899F600D1124862F07
:1001B0000C944900CF93DF931F92CDB7DEB74983EC
:1001C0000E94D2004981842F0F90DF91CF910C942F
:1001D000AE00CF93DF93FC018491EF012196882339
:1001E00021F00E94AE00FE01F7CFDF91CF9108957C
:1001F0000E94AE0080E090E0089580E690E0909349
:100200007100809370000E9476000E940801FFCF69
:100210008DB181658DB987B3806B87BB08958FB928
:0A022000779BFECF0895F894FFCFFE
:0E022A000000000200000000F80000000000CC
:00000001FF
