:100000000C94AB000C94C8000C94C8000C94C8006D
:100010000C94C8000C94C8000C94C8000C94DF1514
:100020000C94C8000C94C8000C94C8000C94C80030
:100030000C94C8000C94C8000C94C8000C94C80020
:100040000C94C8000C94C8000C94C8000C94C80010
:100050000C94C8006E616E00696E660000407A10F4
:10006000F35A00A0724E18090010A5D4E80000E869
:100070007648170000E40B54020000CA9A3B0000C7
:1000800000E1F505000080969800000040420F0056
:100090000000A08601000000102700000000E80317
:1000A000000000006400000000000A0000000000E2
:1000B0000100000000002C76D888DC674F0823DFA1
:1000C000C1DFAE59E1B1B796E5E3E453C63AE65174
:1000D000997696E8E6C28426EB898C9B62ED407C9B
:1000E0006FFCEFBC9C9F40F2BAA56FA5F490055A37
:1000F0002AF75C936B6CF9676DC11BFCE0E40D475C
:10010000FEF520E6B500D0ED902E0300943577057E
:100110000080841E080000204E0A000000C80C3336
:100120003333330F986E12831141EF8D2114893BC5
:10013000E65516CFFEE6DB18D1844B381BF77C1D45
:10014000901DA4BBE424203284725E228100C9F198
:1001500024ECA1E53D2711241FBECFE5D8E0DEBF8A
:10016000CDBF10E0A0E6B0E0E4E8F6E302C0059001
:100170000D92AE37B107D9F720E0AEE7B0E001C08D
:100180001D92A438B207E1F70E9442160C94401B5E
:100190000C940000A3E1B0E0E0EDF0E00C946117F6
:1001A0007C011B016A01FC0117821682838181FF99
:1001B00066C3BE016F5F7F4F4B01F7019381F10171
:1001C00093FD859193FF81911F01882309F453C307
:1001D000853239F493FD859193FF81911F0185321A
:1001E00039F4B70190E00E949C1A56016501E5CFF1
:1001F00010E0512C20E02032A0F48B3269F030F472
:10020000803259F0833269F420612CC08D3239F08C
:10021000803339F4216026C02260246023C0286026
:1002200021C027FD27C030ED380F3A3078F426FF83
:1002300006C0FAE01F9F300D1124132F13C06AE08F
:10024000569E300D1124532E20620CC08E3221F4A4
:1002500026FD11C3206406C08C3611F4206802C04C
:10026000883641F4F10193FD859193FF81911F013F
:100270008111C1CF9BEB980F933018F42061805E01
:1002800006C09BE9980F933008F0AAC12F7E26FF85
:1002900016E02F73722E853621F4F22FF0647F2E34
:1002A00008C0863621F4622F6068762E02C01111D4
:1002B000115077FE07C01C3348F444244394410E88
:1002C00027E00BC0183030F4212F06C027E04CE3A4
:1002D000442E03C027E017E0412C560174E0A70E1E
:1002E000B11CF6016081718182819381042DA4018A
:1002F0000E94AE196C01098100FF02C003FF06C015
:1003000071FC07C072FC08C0612C08C03DE2632E7E
:1003100005C02BE2622E02C090E2692E802F8C7005
:1003200099F1662011F084E001C083E0851510F09A
:10033000512C0BC0581A73FC08C0B70180E290E042
:100340000E949C1A5A94C9F7F3CF662029F0B7018E
:10035000862D90E00E949C1A03FD03C008E510E082
:1003600002C004E510E0F72DF0717F2EF8018491B2
:10037000882309F476C271108052B70190E00E9480
:100380009C1A0F5F1F4FF2CF77FE0FC04C0C04FF7B
:1003900004C08A81813309F44A94141474F5F8E096
:1003A000F41578F588E0482E2CC076FC2AC0812F01
:1003B00090E08C159D059CF06CEFC6166FEFD6068D
:1003C00074F0772D7068772E0AC0E2E0F0E0EC0F51
:1003D000FD1FE10FF11D8081803319F411501111BF
:1003E000F4CF77FE0EC044244394410E812F90E059
:1003F000C816D9062CF41C1904C04424439401C027
:1004000010E077FE07C01C141D043CF496012F5F1A
:100410003F4F05C025E030E002C021E030E066201B
:1004200011F02F5F3F4F112331F0412F50E04F5F0C
:100430005F4F240F351F452D50E02417350714F466
:10044000521A01C0512C872D897049F4552039F07A
:10045000B70180E290E00E949C1A5A94F7CF662080
:1004600029F0B701862D90E00E949C1A73FC09C008
:10047000552039F0B70180E390E00E949C1A5A940D
:10048000F7CF77FE5FC09C2D8D2DD7FE02C090E088
:1004900080E0692E782E40E050E0C6018419910971
:1004A0009D878C87960126193709280D391D812FC4
:1004B00090E0EE27FF27E81BF90BFF87EE87FFEFA1
:1004C0006F167F0669F4B7018EE290E02B8B3A8BB2
:1004D000488B598B0E949C1A598948893A892B89E3
:1004E000C614D70454F06C857D85661577052CF409
:1004F000F901E40FF51F818101C080E371E0671A03
:1005000071084F5F5F4FEE85FF856E167F066CF0BA
:10051000B70190E02B8B3A8B488B598B0E949C1A29
:100520002B893A8948895989CACF6C147D0439F4DA
:100530009A81963318F4953311F404FF81E3B701DF
:1005400090E04BC08A81813309F00F7EB70190E0C3
:100550000E949C1A111105C074FE18C085E490E039
:1005600017C0B7018EE290E00E949C1A82E06624D8
:100570006394680EF401E80FF11D8081B70190E0EB
:100580000E949C1A115041F3862DF1CF85E690E030
:10059000B7010E949C1AD7FC05C0C114D10439F4DC
:1005A00004FF05C0D194C194D1088DE201C08BE253
:1005B000B70190E00E949C1A80E36AE0C616D1045D
:1005C0002CF08F5FFAE0CF1AD108F7CFB70190E097
:1005D0000E949C1AB701C601C0960E949C1A41C194
:1005E000833631F0833779F0833509F058C021C064
:1005F000560172E0A70EB11CF6018081898301E0EB
:1006000010E0640114C05601F2E0AF0EB11CF60117
:10061000C080D18026FF03C0612F70E002C06FEF61
:100620007FEFC6012B8B0E94911A8C012B892F77AB
:1006300015C05601F2E0AF0EB11CF601C080D180AA
:1006400026FF03C0612F70E002C06FEF7FEFC6018D
:100650002B8B0E94861A8C012B892068722E23FD19
:100660001AC0852D90E008171907A8F4B70180E299
:1006700090E00E949C1A5A94F4CFF60177FC859181
:1006800077FE81916F01B70190E00E949C1A511092
:100690005A94015011090115110579F7E2C0843609
:1006A00011F0893651F5560127FF09C0F4E0AF0E6D
:1006B000B11CF60160817181828193810AC0F2E0F0
:1006C000AF0EB11CF60160817181882777FD80959E
:1006D000982F022F0F7697FF08C090958095709500
:1006E00061957F4F8F4F9F4F00682AE030E0A40153
:1006F0000E94E21AC82EC8183EC0022F853721F486
:100700000F7E2AE030E01DC0097F8F3691F018F48B
:10071000883559F0B0C0803719F0883711F0ABC078
:10072000006104FF09C0046007C024FF08C0066020
:1007300006C028E030E005C020E130E002C020E142
:1007400032E0560107FF09C0F4E0AF0EB11CF6011C
:10075000608171818281938108C0F2E0AF0EB11C8B
:10076000F6016081718180E090E0A4010E94E21AAC
:10077000C82EC8180F7706FF0BC0202F2E7FC1167A
:1007800050F404FF0AC002FD08C0202F2E7E05C0D1
:10079000DC2C202F03C0DC2C01C0D12E24FF0DC087
:1007A000FE01EC0DF11D8081803311F4297E09C01A
:1007B00022FF06C0D394D39404C0822F867809F018
:1007C000D39423FD13C020FF06C01C2DD51418F4AC
:1007D000150D1D19D52CD51468F4B70180E290E0F1
:1007E0002B8B0E949C1AD3942B89F5CFD51410F42F
:1007F0005D1801C0512C24FF12C0B70180E390E0C6
:100800002B8B0E949C1A2B8922FF17C021FF03C04B
:1008100088E590E002C088E790E0B7010CC0822F25
:10082000867859F021FD02C080E201C08BE227FDED
:100830008DE2B70190E00E949C1AC11638F4B7010E
:1008400080E390E00E949C1A1150F7CFCA94F40103
:10085000EC0DF11D8081B70190E00E949C1AC1103F
:10086000F5CF552009F4C2CCB70180E290E00E9498
:100870009C1A5A94F6CFF7018681978102C08FEFB8
:100880009FEF6396E2E10C947D170F931F93CF9334
:10089000DF93CDB7DEB7CE57D1090FB6F894DEBFE0
:1008A0000FBECDBF8AE390E02FEFFC0120838BE3E6
:1008B00090E0FC01108280E090E0A8E4B2E48A833A
:1008C0009B83AC83BD832DEC3CEC4CE255E46A8108
:1008D0007B818C819D810E944B19DC01CB018E8331
:1008E0009F83A887B98720E030E040E85FE36E810E
:1008F0007F81888599850E94FD1788232CF481E0EB
:1009000090E09B878A873FC020E03FEF4FE757E4A6
:100910006E817F81888599850E94471918164CF54C
:1009200020E030E040E251E46A817B818C819D814E
:100930000E944B19DC01CB01BC01CD010E9469185A
:10094000DC01CB019B878A870FC084E191E09D8702
:100950008C878C859D850197F1F79D878C878A858B
:100960009B8501979B878A878A859B85009769F776
:1009700014C06E817F81888599850E946918DC0189
:10098000CB019B878A878A859B859F878E878E85EB
:100990009F850197F1F79F878E878BE390E02BE38C
:1009A00030E0F90120812B7FFC012083198284C172
:1009B0008BE390E02BE330E0F90120812860FC011B
:1009C00020838BE390E02BE330E0F90120812F704E
:1009D0002063FC01208380E090E0A0E8BFE3888BE7
:1009E000998BAA8BBB8B2AEF3DEE4BE650E46889CE
:1009F00079898A899B890E944B19DC01CB018C8BF8
:100A00009D8BAE8BBF8B2CE732EF40E350E46889BF
:100A100079898A899B890E944B19DC01CB01888FD7
:100A2000998FAA8FBB8F20E030E040E85FE36C89AC
:100A30007D898E899F890E94FD1788231CF481E09F
:100A40008C8FB6C020E03FEF4FE757E4688D798D7B
:100A50008A8D9B8D0E94471918160CF07FC020E0EC
:100A600030E04AE754E4688979898A899B890E9441
:100A70000118DC01CB018D8F9E8FAF8FB8A32DECB9
:100A80003CEC4CE255E46D8D7E8D8F8D98A10E94DB
:100A90004B19DC01CB0189A39AA3ABA3BCA320E033
:100AA00030E040E85FE369A17AA18BA19CA10E949C
:100AB000FD1788232CF481E090E09EA38DA341C014
:100AC00020E03FEF4FE757E469A17AA18BA19CA1F9
:100AD0000E94471918165CF520E030E040E251E42E
:100AE0006D8D7E8D8F8D98A10E944B19DC01CB01FD
:100AF000BC01CD010E946918DC01CB019EA38DA32E
:100B00000FC084E191E098A78FA38FA198A50197CA
:100B1000F1F798A78FA38DA19EA101979EA38DA306
:100B20008DA19EA1009769F788A98C8F41C069A10A
:100B30007AA18BA19CA10E946918DC01CB019EA324
:100B40008DA38DA19EA19AA789A789A59AA5019792
:100B5000F1F79AA789A788A98C8F2AC020E030E0F6
:100B60004FE753E46C897D898E899F890E944719DC
:100B70001816ACF4688D798D8A8D9B8D0E9469184A
:100B8000DC01CB019CA78BA78BA59CA59EA78DA75D
:100B90008DA59EA50197F1F79EA78DA70FC06C8923
:100BA0007D898E899F890E946918DC01CB018C8F19
:100BB0008C8D8FA78FA58A95F1F78FA78BE390E097
:100BC0002BE330E0F9012081277FFC01208380E0C6
:100BD00090E0A0EAB0E489AB9AABABABBCAB2DEC38
:100BE0003CEC4CE255E469A97AA98BA99CA90E9426
:100BF0004B19DC01CB018DAB9EABAFABB8AF20E0A6
:100C000030E040E85FE36DA97EA98FA998AD0E940E
:100C1000FD1788232CF481E090E09AAF89AF3FC0A4
:100C200020E03FEF4FE757E46DA97EA98FA998AD6B
:100C30000E94471918164CF520E030E040E251E4DC
:100C400069A97AA98BA99CA90E944B19DC01CB0147
:100C5000BC01CD010E946918DC01CB019AAF89AFBC
:100C60000FC084E191E09CAF8BAF8BAD9CAD019741
:100C7000F1F79CAF8BAF89AD9AAD01979AAF89AF71
:100C800089AD9AAD009769F714C06DA97EA98FA9A7
:100C900098AD0E946918DC01CB019AAF89AF89AD8C
:100CA0009AAD9EAF8DAF8DAD9EAD0197F1F79EAF22
:100CB0008DAF89818F5F89838981833008F478CEF5
:100CC0008BE390E02BE330E0F90120812860FC0108
:100CD00020838BE390E02BE330E0F90120812F703B
:100CE0002062FC0120839E01215C3F4F80E090E068
:100CF000A0E8BFE3F90180839183A283B3838E01CF
:100D00000D5B1F4FCE01CF962AEF3DEE4BE650E430
:100D1000FC0160817181828193810E944B19DC0109
:100D2000CB01F80180839183A283B3838E01095B99
:100D30001F4FCE01CF962CE732EF40E350E4FC0189
:100D400060817181828193810E944B19DC01CB010A
:100D5000F80180839183A283B383CE018D5B9F4F83
:100D600020E030E040E85FE3FC0160817181828136
:100D700093810E94FD1788233CF4CE01855B9F4F31
:100D800021E0FC0120832FC1CE01895B9F4F20E031
:100D90003FEF4FE757E4FC016081718182819381CD
:100DA0000E94471918160CF0D0C0CE01CF9620E053
:100DB00030E04AE754E4FC016081718182819381D3
:100DC0000E940118DC01CB019E01245B3F4FF90119
:100DD00080839183A283B3838E01005B1F4FCE017A
:100DE000845B9F4F2DEC3CEC4CE255E4FC016081B0
:100DF0007181828193810E944B19DC01CB01F80142
:100E000080839183A283B383CE01805B9F4F20E0D8
:100E100030E040E85FE3FC01608171818281938171
:100E20000E94FD1788234CF4CE018C5A9F4F21E07D
:100E300030E0FC01318320836DC0CE01805B9F4F89
:100E400020E03FEF4FE757E4FC0160817181828130
:100E500093810E94471918160CF04AC0CE01845B9A
:100E60009F4F20E030E040E251E4FC01608171815D
:100E7000828193810E944B19DC01CB018E010C5AB7
:100E80001F4FBC01CD010E946918DC01CB01F801A4
:100E90009183808324C0CE018A5A9F4F24E131E0A0
:100EA000FC0131832083CE018A5A9F4FFC0180814F
:100EB00091810197F1F79E012A5A3F4FF9019183E1
:100EC0008083CE018C5A9F4F9E012C5A3F4FF901CF
:100ED0002081318121503109FC0131832083CE01F1
:100EE0008C5A9F4FFC01808191810097A1F67BC0B5
:100EF0008E010C5A1F4FCE01805B9F4FFC01608119
:100F00007181828193810E946918DC01CB01F80113
:100F100091838083CE01885A9F4F9E012C5A3F4F68
:100F2000F90120813181FC0131832083CE01885A6F
:100F30009F4FFC01808191810197F1F79E01285A12
:100F40003F4FF901918380834EC0CE018D5B9F4F4F
:100F500020E030E04FE753E4FC0160817181828141
:100F600093810E94471918166CF58E01065A1F4F7F
:100F7000CE01895B9F4FFC016081718182819381E9
:100F80000E946918DC01CB01F80191838083CE01B6
:100F9000845A9F4F9E01265A3F4FF901208131818B
:100FA000FC0131832083CE01845A9F4FFC01808154
:100FB00091810197F1F79E01245A3F4FF9019183E6
:100FC000808328C08E01055B1F4FCE018D5B9F4F34
:100FD000FC0160817181828193810E946918DC012A
:100FE000CB01F8018083CE01825A9F4F9E01255B81
:100FF0003F4FF9012081FC012083CE01825A9F4F8F
:10100000FC018081282F2A95F1F7CE01825A9F4F4B
:10101000FC0120838BE390E02BE330E0F901208199
:10102000277FFC0120839E01215A3F4F80E090E002
:10103000A8ECB2E4F90180839183A283B3838E018B
:101040000D591F4FCE01815A9F4F2AEF3DEE4BE6BF
:1010500050E4FC0160817181828193810E944B196F
:10106000DC01CB01F80180839183A283B3838E01DD
:1010700009591F4FCE01815A9F4F2CE732EF40E3B1
:1010800050E4FC0160817181828193810E944B193F
:10109000DC01CB01F80180839183A283B383CE016D
:1010A0008D599F4F20E030E040E85FE3FC01608114
:1010B0007181828193810E94FD1788233CF4CE01C7
:1010C00085599F4F21E0FC01208330C1CE01895911
:1010D0009F4F20E03FEF4FE757E4FC0160817181B3
:1010E000828193810E94471918160CF0D1C0CE015D
:1010F000815A9F4F20E030E04AE754E4FC016081D0
:101100007181828193810E940118DC01CB019E01D3
:1011100024593F4FF90180839183A283B3838E01C9
:1011200000591F4FCE0184599F4F2DEC3CEC4CE2EF
:1011300055E4FC0160817181828193810E944B1989
:10114000DC01CB01F80180839183A283B383CE01BC
:1011500080599F4F20E030E040E85FE3FC01608170
:101160007181828193810E94FD1788234CF4CE0106
:101170008C589F4F21E030E0FC01318320836DC00B
:10118000CE0180599F4F20E03FEF4FE757E4FC012D
:1011900060817181828193810E94471918160CF039
:1011A0004AC0CE0184599F4F20E030E040E251E434
:1011B000FC0160817181828193810E944B19DC0165
:1011C000CB018E010C581F4FBC01CD010E94691844
:1011D000DC01CB01F8019183808324C0CE018A58C1
:1011E0009F4F24E131E0FC0131832083CE018A58F6
:1011F0009F4FFC01808191810197F1F79E012A5850
:101200003F4FF90191838083CE018C589F4F9E01FF
:101210002C583F4FF9012081318121503109FC01C7
:1012200031832083CE018C589F4FFC0180819181B6
:101230000097A1F67BC08E010C581F4FCE0180593C
:101240009F4FFC0160817181828193810E946918A6
:10125000DC01CB01F80191838083CE0188589F4F38
:101260009E012C583F4FF90120813181FC013183CF
:101270002083CE0188589F4FFC0180819181019786
:10128000F1F79E0128583F4FF901918380834EC0AA
:10129000CE018D599F4F20E030E04FE753E4FC0131
:1012A00060817181828193810E94471918166CF5C3
:1012B0008E0106581F4FCE0189599F4FFC01608156
:1012C0007181828193810E946918DC01CB01F80150
:1012D00091838083CE0184589F4F9E0126583F4FB3
:1012E000F90120813181FC0131832083CE018458B2
:1012F0009F4FFC01808191810197F1F79E01245855
:101300003F4FF9019183808328C08E0105591F4FFB
:10131000CE018D599F4FFC01608171818281938143
:101320000E946918DC01CB01F8018083CE0182584C
:101330009F4F9E0125593F4FF9012081FC012083D9
:10134000CE0182589F4FFC018081282F2A95F1F70A
:10135000CE0182589F4FFC01208388E20E944C0AF4
:101360008CE00E944C0A86E00E944C0A0E94C4094C
:10137000C258DF4F0FB6F894DEBF0FBECDBFDF916E
:10138000CF911F910F910895CF93DF93CDB7DEB723
:101390002E970FB6F894DEBF0FBECDBF81E00E943E
:1013A0004C0A80E090E0A0E0B0E489839A83AB83AC
:1013B000BC832DEC3CEC4CE255E469817A818B8155
:1013C0009C810E944B19DC01CB018D839E83AF83EE
:1013D000B88720E030E040E85FE36D817E818F8157
:1013E00098850E94FD1788232CF481E090E09A876D
:1013F00089873FC020E03FEF4FE757E46D817E8152
:101400008F8198850E94471918164CF520E030E02E
:1014100040E251E469817A818B819C810E944B1961
:10142000DC01CB01BC01CD010E946918DC01CB01BC
:101430009A8789870FC084E191E09C878B878B8591
:101440009C850197F1F79C878B8789859A85019701
:101450009A87898789859A85009769F714C06D8175
:101460007E818F8198850E946918DC01CB019A8763
:10147000898789859A859E878D878D859E85019729
:10148000F1F79E878D872E960FB6F894DEBF0FBEBC
:10149000CDBFDF91CF9108950F931F93CF93DF932B
:1014A000CDB7DEB7C158D1090FB6F894DEBF0FBE75
:1014B000CDBF9E012F573F4FF90180838BE390E012
:1014C0002BE330E0F90120812B7FFC0120838BE3AB
:1014D00090E02BE330E0F90120812860FC012083BB
:1014E0008BE390E02BE330E0F9012081422F4F7035
:1014F0009E012F573F4FF9012081207F242BFC01B3
:10150000208380E090E0A0E8BFE389839A83AB83E7
:10151000BC832AEF3DEE4BE650E469817A818B81F2
:101520009C810E944B19DC01CB018D839E83AF838C
:10153000B8872CE732EF40E350E469817A818B81F0
:101540009C810E944B19DC01CB0189879A87AB876C
:10155000BC8720E030E040E85FE36D817E818F81D1
:1015600098850E94FD1788231CF481E08D87B2C006
:1015700020E03FEF4FE757E469857A858B859C85AE
:101580000E94471918160CF07BC020E030E04AE7B3
:1015900054E469817A818B819C810E940118DC016D
:1015A000CB018E879F87A88BB98B2DEC3CEC4CE24E
:1015B00055E46E857F85888999890E944B19DC01E5
:1015C000CB018A8B9B8BAC8BBD8B20E030E040E85D
:1015D0005FE36A897B898C899D890E94FD17882336
:1015E0002CF481E090E09F8B8E8B3FC020E03FEF9A
:1015F0004FE757E46A897B898C899D890E94471946
:1016000018164CF520E030E040E251E46E857F850D
:10161000888999890E944B19DC01CB01BC01CD015D
:101620000E946918DC01CB019F8B8E8B0FC084E177
:1016300091E0998F888F888D998D0197F1F7998F17
:10164000888F8E899F8901979F8B8E8B8E899F892A
:10165000009769F73FC06A897B898C899D890E94C0
:101660006918DC01CB019F8B8E8B8E899F899B8FA4
:101670008A8F8A8D9B8D0197F1F79B8F8A8F2AC065
:1016800020E030E04FE753E46D817E818F819885C3
:101690000E9447191816ACF469857A858B859C855C
:1016A0000E946918DC01CB019D8F8C8F8C8D9D8DE4
:1016B0009F8F8E8F8E8D9F8D0197F1F79F8F8E8FCD
:1016C0000FC06D817E818F8198850E946918DC0131
:1016D000CB018D878D8588A388A18A95F1F788A392
:1016E0008BE390E02BE330E0F9012081277FFC01C0
:1016F000208380E090E0A8ECB2E489A39AA3ABA396
:10170000BCA32AEF3DEE4BE650E469A17AA18BA180
:101710009CA10E944B19DC01CB018DA39EA3AFA31A
:10172000B8A72CE732EF40E350E469A17AA18BA17E
:101730009CA10E944B19DC01CB0189A79AA7ABA7FA
:10174000BCA720E030E040E85FE36DA17EA18FA15F
:1017500098A50E94FD1788231CF481E08DA7B2C0D4
:1017600020E03FEF4FE757E469A57AA58BA59CA53C
:101770000E94471918160CF07BC020E030E04AE7C1
:1017800054E469A17AA18BA19CA10E940118DC01FB
:10179000CB018EA79FA7A8ABB9AB2DEC3CEC4CE2DC
:1017A00055E46EA57FA588A999A90E944B19DC0173
:1017B000CB018AAB9BABACABBDAB20E030E040E8EB
:1017C0005FE36AA97BA98CA99DA90E94FD178823C4
:1017D0002CF481E090E09FAB8EAB3FC020E03FEF68
:1017E0004FE757E46AA97BA98CA99DA90E944719D4
:1017F00018164CF520E030E040E251E46EA57FA5DC
:1018000088A999A90E944B19DC01CB01BC01CD012B
:101810000E946918DC01CB019FAB8EAB0FC084E145
:1018200091E099AF88AF88AD99AD0197F1F799AF85
:1018300088AF8EA99FA901979FAB8EAB8EA99FA958
:10184000009769F73FC06AA97BA98CA99DA90E944E
:101850006918DC01CB019FAB8EAB8EA99FA99BAF12
:101860008AAF8AAD9BAD0197F1F79BAF8AAF2AC0D3
:1018700020E030E04FE753E46DA17EA18FA198A551
:101880000E9447191816ACF469A57AA58BA59CA5EA
:101890000E946918DC01CB019DAF8CAF8CAD9DAD72
:1018A0009FAF8EAF8EAD9FAD0197F1F79FAF8EAF1B
:1018B0001CC06DA17EA18FA198A50E946918DC01B2
:1018C000CB018DA72DA5CE01805C9F4FFC0120830D
:1018D000CE01805C9F4FFC018081282F2A95F1F773
:1018E000CE01805C9F4FFC0120838BE390E02BE3D3
:1018F00030E0F90120812860FC0120838BE390E037
:101900002BE330E0F9012081422F4F709E012F57C9
:101910003F4FF9012081222F30E022953295307F10
:101920003227207F3227242BFC0120839E012F5B4E
:101930003F4F80E090E0A0E8BFE3F901808391830E
:10194000A283B3838E010B5B1F4FCE018F5B9F4F32
:101950002AEF3DEE4BE650E4FC016081718182810B
:1019600093810E944B19DC01CB01F80180839183A4
:10197000A283B3838E01075B1F4FCE018F5B9F4F06
:101980002CE732EF40E350E4FC01608171818281F9
:1019900093810E944B19DC01CB01F8018083918374
:1019A000A283B383CE018B5B9F4F20E030E040E801
:1019B0005FE3FC0160817181828193810E94FD1748
:1019C00088233CF4CE01835B9F4F21E0FC01208300
:1019D00030C1CE01875B9F4F20E03FEF4FE757E4D8
:1019E000FC0160817181828193810E9447191816E0
:1019F0000CF0D1C0CE018F5B9F4F20E030E04AE772
:101A000054E4FC0160817181828193810E940118FC
:101A1000DC01CB019E01225B3F4FF9018083918362
:101A2000A283B3838E010E5A1F4FCE01825B9F4F5C
:101A30002DEC3CEC4CE255E4FC016081718182812B
:101A400093810E944B19DC01CB01F80180839183C3
:101A5000A283B383CE018E5A9F4F20E030E040E84E
:101A60005FE3FC0160817181828193810E94FD1797
:101A700088234CF4CE018A5A9F4F21E030E0FC01CC
:101A8000318320836DC0CE018E5A9F4F20E03FEFFF
:101A90004FE757E4FC0160817181828193810E944C
:101AA000471918160CF04AC0CE01825B9F4F20E008
:101AB00030E040E251E4FC016081718182819381D8
:101AC0000E944B19DC01CB018E010A5A1F4FBC0149
:101AD000CD010E946918DC01CB01F801918380835C
:101AE00024C0CE01885A9F4F24E131E0FC013183AC
:101AF0002083CE01885A9F4FFC01808191810197FC
:101B0000F1F79E01285A3F4FF90191838083CE015E
:101B10008A5A9F4F9E012A5A3F4FF90120813181F5
:101B200021503109FC0131832083CE018A5A9F4F15
:101B3000FC01808191810097A1F67BC08E010A5A39
:101B40001F4FCE018E5A9F4FFC01608171818281AF
:101B500093810E946918DC01CB01F8019183808395
:101B6000CE01865A9F4F9E012A5A3F4FF90120818C
:101B70003181FC0131832083CE01865A9F4FFC01C5
:101B8000808191810197F1F79E01265A3F4FF9011B
:101B9000918380834EC0CE018B5B9F4F20E030E06D
:101BA0004FE753E4FC0160817181828193810E943F
:101BB000471918166CF58E01045A1F4FCE01875B2A
:101BC0009F4FFC0160817181828193810E9469181D
:101BD000DC01CB01F80191838083CE01825A9F4FB3
:101BE0009E01245A3F4FF90120813181FC0131834C
:101BF0002083CE01825A9F4FFC0180819181019701
:101C0000F1F79E01225A3F4FF9019183808328C04A
:101C10008E01035B1F4FCE018B5B9F4FFC016081E8
:101C20007181828193810E946918DC01CB01F801E6
:101C30008083CE01805A9F4F9E01235B3F4FF90165
:101C40002081FC012083CE01805A9F4FFC018081BE
:101C5000282F2A95F1F7CE01805A9F4FFC0120834F
:101C60008BE390E02BE330E0F9012081277FFC013A
:101C700020839E012F593F4F80E090E0A8ECB2E412
:101C8000F90180839183A283B3838E010B591F4F87
:101C9000CE018F599F4F2AEF3DEE4BE650E4FC01F9
:101CA00060817181828193810E944B19DC01CB019B
:101CB000F80180839183A283B3838E0107591F4F5C
:101CC000CE018F599F4F2CE732EF40E350E4FC01E7
:101CD00060817181828193810E944B19DC01CB016B
:101CE000F80180839183A283B383CE018B599F4FE8
:101CF00020E030E040E85FE3FC0160817181828197
:101D000093810E94FD1788233CF4CE0183599F4F95
:101D100021E0FC01208330C1CE0187599F4F20E094
:101D20003FEF4FE757E4FC0160817181828193812D
:101D30000E94471918160CF0D1C0CE018F599F4F41
:101D400020E030E04AE754E4FC0160817181828147
:101D500093810E940118DC01CB019E0122593F4F63
:101D6000F90180839183A283B3838E010E581F4FA4
:101D7000CE0182599F4F2DEC3CEC4CE255E4FC0126
:101D800060817181828193810E944B19DC01CB01BA
:101D9000F80180839183A283B383CE018E589F4F35
:101DA00020E030E040E85FE3FC01608171818281E6
:101DB00093810E94FD1788234CF4CE018A589F4FCF
:101DC00021E030E0FC01318320836DC0CE018E58CC
:101DD0009F4F20E03FEF4FE757E4FC0160817181A6
:101DE000828193810E94471918160CF04AC0CE01D7
:101DF00082599F4F20E030E040E251E4FC016081D5
:101E00007181828193810E944B19DC01CB018E018B
:101E10000A581F4FBC01CD010E946918DC01CB019B
:101E2000F8019183808324C0CE0188589F4F24E11C
:101E300031E0FC0131832083CE0188589F4FFC01A3
:101E4000808191810197F1F79E0128583F4FF90158
:101E500091838083CE018A589F4F9E012A583F4F1D
:101E6000F9012081318121503109FC013183208326
:101E7000CE018A589F4FFC01808191810097A1F685
:101E80007BC08E010A581F4FCE018E589F4FFC0118
:101E900060817181828193810E946918DC01CB018C
:101EA000F80191838083CE0186589F4F9E012A5866
:101EB0003F4FF90120813181FC0131832083CE0124
:101EC00086589F4FFC01808191810197F1F79E0117
:101ED00026583F4FF901918380834EC0CE018B5924
:101EE0009F4F20E030E04FE753E4FC0160817181B7
:101EF000828193810E94471918166CF58E0104584F
:101F00001F4FCE0187599F4FFC01608171818281F3
:101F100093810E946918DC01CB01F80191838083D1
:101F2000CE0182589F4F9E0124583F4FF9012081D6
:101F30003181FC0131832083CE0182589F4FFC0107
:101F4000808191810197F1F79E0122583F4FF9015D
:101F50009183808328C08E0103591F4FCE018B5976
:101F60009F4FFC0160817181828193810E94691879
:101F7000DC01CB01F8018083CE0180589F4F9E0188
:101F800023593F4FF9012081FC012083CE01805865
:101F90009F4FFC018081282F2A95F1F7CE018058B0
:101FA0009F4FFC012083CF57DF4F0FB6F894DEBF61
:101FB0000FBECDBFDF91CF911F910F9108950F9369
:101FC0001F93CF93DF93CDB7DEB7C158D1090FB6BA
:101FD000F894DEBF0FBECDBF9E012F573F4FF901D2
:101FE00080838BE390E02BE330E0F90120812460D3
:101FF000FC0120838BE390E02BE330E0F9012081AA
:102000002860FC0120838BE390E02BE330E0F901B2
:102010002081422F4F709E012F573F4FF9012081A1
:10202000207F242BFC01208380E090E0A0E8BFE328
:1020300089839A83AB83BC832AEF3DEE4BE650E461
:1020400069817A818B819C810E944B19DC01CB01D3
:102050008D839E83AF83B8872CE732EF40E350E453
:1020600069817A818B819C810E944B19DC01CB01B3
:1020700089879A87AB87BC8720E030E040E85FE340
:102080006D817E818F8198850E94FD1788231CF4C5
:1020900081E08D87B2C020E03FEF4FE757E46985CC
:1020A0007A858B859C850E94471918160CF07BC099
:1020B00020E030E04AE754E469817A818B819C8199
:1020C0000E940118DC01CB018E879F87A88BB98BFA
:1020D0002DEC3CEC4CE255E46E857F85888999892E
:1020E0000E944B19DC01CB018A8B9B8BAC8BBD8B87
:1020F00020E030E040E85FE36A897B898C899D8934
:102100000E94FD1788232CF481E090E09F8B8E8B3A
:102110003FC020E03FEF4FE757E46A897B898C8915
:102120009D890E94471918164CF520E030E040E2E6
:1021300051E46E857F85888999890E944B19DC015D
:10214000CB01BC01CD010E946918DC01CB019F8B42
:102150008E8B0FC084E191E0998F888F888D998D47
:102160000197F1F7998F888F8E899F8901979F8BAF
:102170008E8B8E899F89009769F73FC06A897B891A
:102180008C899D890E946918DC01CB019F8B8E8B05
:102190008E899F899B8F8A8F8A8D9B8D0197F1F7FE
:1021A0009B8F8A8F2AC020E030E04FE753E46D8197
:1021B0007E818F8198850E9447191816ACF4698535
:1021C0007A858B859C850E946918DC01CB019D8FE7
:1021D0008C8F8C8D9D8D9F8F8E8F8E8D9F8D019777
:1021E000F1F79F8F8E8F0FC06D817E818F819885D3
:1021F0000E946918DC01CB018D878D8588A388A199
:102200008A95F1F788A38BE390E02BE330E0F901A6
:102210002081277FFC01208380E090E0A8ECB2E4DD
:1022200089A39AA3ABA3BCA32AEF3DEE4BE650E4EF
:1022300069A17AA18BA19CA10E944B19DC01CB0161
:102240008DA39EA3AFA3B8A72CE732EF40E350E4E1
:1022500069A17AA18BA19CA10E944B19DC01CB0141
:1022600089A79AA7ABA7BCA720E030E040E85FE3CE
:102270006DA17EA18FA198A50E94FD1788231CF453
:1022800081E08DA7B2C020E03FEF4FE757E469A59A
:102290007AA58BA59CA50E94471918160CF07BC047
:1022A00020E030E04AE754E469A17AA18BA19CA127
:1022B0000E940118DC01CB018EA79FA7A8ABB9AB88
:1022C0002DEC3CEC4CE255E46EA57FA588A999A9BC
:1022D0000E944B19DC01CB018AAB9BABACABBDAB15
:1022E00020E030E040E85FE36AA97BA98CA99DA9C2
:1022F0000E94FD1788232CF481E090E09FAB8EAB09
:102300003FC020E03FEF4FE757E46AA97BA98CA9C3
:102310009DA90E94471918164CF520E030E040E2D4
:1023200051E46EA57FA588A999A90E944B19DC01EB
:10233000CB01BC01CD010E946918DC01CB019FAB30
:102340008EAB0FC084E191E099AF88AF88AD99ADB5
:102350000197F1F799AF88AF8EA99FA901979FAB1D
:102360008EAB8EA99FA9009769F73FC06AA97BA988
:102370008CA99DA90E946918DC01CB019FAB8EAB93
:102380008EA99FA99BAF8AAF8AAD9BAD0197F1F74C
:102390009BAF8AAF2AC020E030E04FE753E46DA145
:1023A0007EA18FA198A50E9447191816ACF469A5C3
:1023B0007AA58BA59CA50E946918DC01CB019DAF75
:1023C0008CAF8CAD9DAD9FAF8EAF8EAD9FAD0197A5
:1023D000F1F79FAF8EAF1CC06DA17EA18FA198A514
:1023E0000E946918DC01CB018DA72DA5CE01805C70
:1023F0009F4FFC012083CE01805C9F4FFC018081B8
:10240000282F2A95F1F7CE01805C9F4FFC01208395
:102410008BE390E02BE330E0F90120812860FC01A0
:1024200020838BE390E02BE330E0F9012081422F01
:102430004F709E012F573F4FF9012081222F30E02E
:1024400022953295307F3227207F3227242BFC01C2
:1024500020839E012F5B3F4F80E090E0A0E8BFE328
:10246000F90180839183A283B3838E010B5B1F4F9D
:10247000CE018F5B9F4F2AEF3DEE4BE650E4FC010F
:1024800060817181828193810E944B19DC01CB01B3
:10249000F80180839183A283B3838E01075B1F4F72
:1024A000CE018F5B9F4F2CE732EF40E350E4FC01FD
:1024B00060817181828193810E944B19DC01CB0183
:1024C000F80180839183A283B383CE018B5B9F4FFE
:1024D00020E030E040E85FE3FC01608171818281AF
:1024E00093810E94FD1788233CF4CE01835B9F4FAC
:1024F00021E0FC01208330C1CE01875B9F4F20E0AB
:102500003FEF4FE757E4FC01608171818281938145
:102510000E94471918160CF0D1C0CE018F5B9F4F57
:1025200020E030E04AE754E4FC016081718182815F
:1025300093810E940118DC01CB019E01225B3F4F79
:10254000F90180839183A283B3838E010E5A1F4FBA
:10255000CE01825B9F4F2DEC3CEC4CE255E4FC013C
:1025600060817181828193810E944B19DC01CB01D2
:10257000F80180839183A283B383CE018E5A9F4F4B
:1025800020E030E040E85FE3FC01608171818281FE
:1025900093810E94FD1788234CF4CE018A5A9F4FE5
:1025A00021E030E0FC01318320836DC0CE018E5AE2
:1025B0009F4F20E03FEF4FE757E4FC0160817181BE
:1025C000828193810E94471918160CF04AC0CE01EF
:1025D000825B9F4F20E030E040E251E4FC016081EB
:1025E0007181828193810E944B19DC01CB018E01A4
:1025F0000A5A1F4FBC01CD010E946918DC01CB01B2
:10260000F8019183808324C0CE01885A9F4F24E132
:1026100031E0FC0131832083CE01885A9F4FFC01B9
:10262000808191810197F1F79E01285A3F4FF9016E
:1026300091838083CE018A5A9F4F9E012A5A3F4F31
:10264000F9012081318121503109FC01318320833E
:10265000CE018A5A9F4FFC01808191810097A1F69B
:102660007BC08E010A5A1F4FCE018E5A9F4FFC012C
:1026700060817181828193810E946918DC01CB01A4
:10268000F80191838083CE01865A9F4F9E012A5A7A
:102690003F4FF90120813181FC0131832083CE013C
:1026A000865A9F4FFC01808191810197F1F79E012D
:1026B000265A3F4FF901918380834EC0CE018B5B38
:1026C0009F4F20E030E04FE753E4FC0160817181CF
:1026D000828193810E94471918166CF58E01045A65
:1026E0001F4FCE01875B9F4FFC016081718182810A
:1026F00093810E946918DC01CB01F80191838083EA
:10270000CE01825A9F4F9E01245A3F4FF9012081EA
:102710003181FC0131832083CE01825A9F4FFC011D
:10272000808191810197F1F79E01225A3F4FF90173
:102730009183808328C08E01035B1F4FCE018B5B8A
:102740009F4FFC0160817181828193810E94691891
:10275000DC01CB01F8018083CE01805A9F4F9E019E
:10276000235B3F4FF9012081FC012083CE01805A79
:102770009F4FFC018081282F2A95F1F7CE01805AC6
:102780009F4FFC0120838BE390E02BE330E0F901C5
:102790002081277FFC0120839E012F593F4F80E03D
:1027A00090E0A8ECB2E4F90180839183A283B38323
:1027B0008E010B591F4FCE018F599F4F2AEF3DEECF
:1027C0004BE650E4FC0160817181828193810E941B
:1027D0004B19DC01CB01F80180839183A283B38381
:1027E0008E0107591F4FCE018F599F4F2CE732EFB3
:1027F00040E350E4FC0160817181828193810E94F9
:102800004B19DC01CB01F80180839183A283B38350
:10281000CE018B599F4F20E030E040E85FE3FC01A0
:1028200060817181828193810E94FD1788233CF42D
:10283000CE0183599F4F21E0FC01208330C1CE019E
:1028400087599F4F20E03FEF4FE757E4FC0160813D
:102850007181828193810E94471918160CF0D1C0B2
:10286000CE018F599F4F20E030E04AE754E4FC014D
:1028700060817181828193810E940118DC01CB010A
:102880009E0122593F4FF90180839183A283B38334
:102890008E010E581F4FCE0182599F4F2DEC3CECFC
:1028A0004CE255E4FC0160817181828193810E9438
:1028B0004B19DC01CB01F80180839183A283B383A0
:1028C000CE018E589F4F20E030E040E85FE3FC01EE
:1028D00060817181828193810E94FD1788234CF46D
:1028E000CE018A589F4F21E030E0FC0131832083E4
:1028F0006DC0CE018E589F4F20E03FEF4FE757E469
:10290000FC0160817181828193810E9447191816B0
:102910000CF04AC0CE0182599F4F20E030E040E2E7
:1029200051E4FC0160817181828193810E944B1985
:10293000DC01CB018E010A581F4FBC01CD010E9462
:102940006918DC01CB01F8019183808324C0CE019A
:1029500088589F4F24E131E0FC0131832083CE0170
:1029600088589F4FFC01808191810197F1F79E016A
:1029700028583F4FF90191838083CE018A589F4F99
:102980009E012A583F4FF9012081318121503109A0
:10299000FC0131832083CE018A589F4FFC01808146
:1029A00091810097A1F67BC08E010A581F4FCE017E
:1029B0008E589F4FFC0160817181828193810E94BA
:1029C0006918DC01CB01F80191838083CE01865820
:1029D0009F4F9E012A583F4FF90120813181FC0110
:1029E00031832083CE0186589F4FFC0180819181E5
:1029F0000197F1F79E0126583F4FF901918380839B
:102A00004EC0CE018B599F4F20E030E04FE753E49A
:102A1000FC0160817181828193810E94471918169F
:102A20006CF58E0104581F4FCE0187599F4FFC0152
:102A300060817181828193810E946918DC01CB01E0
:102A4000F80191838083CE0182589F4F9E012458C4
:102A50003F4FF90120813181FC0131832083CE0178
:102A600082589F4FFC01808191810197F1F79E016F
:102A700022583F4FF9019183808328C08E0103596A
:102A80001F4FCE018B599F4FFC0160817181828164
:102A900093810E946918DC01CB01F8018083CE018B
:102AA00080589F4F9E0123593F4FF9012081FC011F
:102AB0002083CE0180589F4FFC018081282F2A95CA
:102AC000F1F7CE0180589F4FFC012083CF57DF4F95
:102AD0000FB6F894DEBF0FBECDBFDF91CF911F912F
:102AE0000F910895CF93DF9300D0CDB7DEB78983E0
:102AF0006A838981982F9295990F990F907C8A818A
:102B0000890F80580E944C0A0F900F90DF91CF914F
:102B10000895CF93DF9300D000D0CDB7DEB789837F
:102B20006A835C834B836A8189810E9472158B81E1
:102B30009C810E94DF0F0F900F900F900F90DF91FC
:102B4000CF9108951F93CF93DF9300D000D01F92B1
:102B5000CDB7DEB79D838C8303C0812F0E94DF0F2A
:102B60008C819D819C012F5F3F4F3D832C839A83F5
:102B7000898389819A81FC0184918B838B81182FB1
:102B8000112359F70F900F900F900F900F90DF9136
:102B9000CF911F910895CF93DF9300D01F92CDB7AF
:102BA000DEB789837B836A8389810E94DF0F80E09F
:102BB00090E00F900F900F90DF91CF9108951F92AA
:102BC0000F9200905F000F9211242F933F934F9329
:102BD0005F936F937F938F939F93AF93BF93EF9385
:102BE000FF93CF93DF93CDB7DEB788E390E028E380
:102BF00030E0F90120812F7EFC01208381E00E94DA
:102C0000471780EA0E9447178FE290E0FC0180811D
:102C1000882F90E08F709927982F882790936100D4
:102C20008093600080E00E9447178FE290E0FC01F3
:102C30008081282F30E08091600090916100822B8C
:102C4000932B909361008093600088E390E028E3E9
:102C500030E0F90120812061FC012083DF91CF91D8
:102C6000FF91EF91BF91AF919F918F917F916F9164
:102C70005F914F913F912F910F9000925F000F90C5
:102C80001F901895CF93DF93CDB7DEB7E4970FB6BB
:102C9000F894DEBF0FBECDBF82E690E09093810036
:102CA000809380000E9445040E942E178EE490E0DD
:102CB0002EE430E0F90120812B60FC0120838AE4BE
:102CC00090E020E833E4FC013183208389E590E043
:102CD00029E530E0F90120812061FC01208378940E
:102CE0001A82198260E080E00E9472158091600073
:102CF00090916100292F2F938F9380E790E0892F87
:102D00008F9380E790E08F930E94CE1A0F900F90E0
:102D10000F900F9060E081E00E947215809160003A
:102D200090916100CC01A0E0B0E0BC01CD010E9417
:102D30009518DC01CB0120E030E040EA50E4BC0112
:102D4000CD010E944B19DC01CB0120E030EF4FE7B1
:102D500055E4BC01CD010E940118DC01CB0189873B
:102D60009A87AB87BC8789819A81880F991F880FC2
:102D7000991F9E012F5F3F4F820F931F9C01245F7D
:102D80003F4F89859A85AB85BC85F9018083918306
:102D9000A283B3831B821C821D821E8218861F821F
:102DA00024C08F819885880F991F880F991F9E01D5
:102DB0002F5F3F4F820F931F0C96FC018081918102
:102DC000A281B3819C01AD016B817C818D819E814B
:102DD0000E949917DC01CB018B839C83AD83BE835A
:102DE0008F819885019698878F838F8198858A3007
:102DF0009105BCF220E030E040E251E46B817C813F
:102E00008D819E810E940118DC01CB018B839C8304
:102E1000AD83BE8389819A8101969A838983898152
:102E20009A818A30910511F41A8219828E818F93CA
:102E30008D818F938C818F938B818F9383E790E02B
:102E4000892F8F9383E790E08F930E94CE1A0F9083
:102E50000F900F900F900F900F9044CFCF93DF9370
:102E6000CDB7DEB78DE290E02DE230E0F9012081B0
:102E70002165FC01208387E390E027E330E0F9013E
:102E80002081206BFC012083DF91CF910895CF93A7
:102E9000DF931F92CDB7DEB789838FE290E029815F
:102EA000FC01208300008EE290E0FC0180818823F9
:102EB000D4F78FE290E0FC0180810F90DF91CF91F9
:102EC00008952F923F924F925F926F927F928F92CE
:102ED0009F92AF92BF92CF92DF92EF92FF920F93A9
:102EE0001F93CF93DF93CDB7DEB7CA1BDB0B0FB6B3
:102EF000F894DEBF0FBECDBF09942A883988488870
:102F00005F846E847D848C849B84AA84B984C88405
:102F1000DF80EE80FD800C811B81AA81B981CE0FFC
:102F2000D11D0FB6F894DEBF0FBECDBFED010895E1
:102F30005058BB27AA270ED070C161D130F066D19E
:102F400020F031F49F3F11F41EF456C10EF4E095C9
:102F5000E7FB4CC1E92F72D180F3BA176207730700
:102F60008407950718F071F49EF58AC10EF4E09578
:102F70000B2EBA2FA02D0B01B90190010C01CA0133
:102F8000A0011124FF27591B99F0593F50F4503EDE
:102F900068F11A16F040A22F232F342F4427585FD0
:102FA000F3CF469537952795A795F0405395C9F7E8
:102FB0007EF41F16BA0B620B730B840BBAF09150A0
:102FC000A1F0FF0FBB1F661F771F881FC2F70EC03F
:102FD000BA0F621F731F841F48F487957795679512
:102FE000B795F7959E3F08F0B3CF9395880F08F0FB
:102FF0009927EE0F979587950895D4D008F481E02E
:1030000008950CD00AC102D140F0F9D030F021F47B
:103010005F3F19F0EBC0511134C1EEC00FD198F3EE
:103020009923C9F35523B1F3951B550BBB27AA2749
:1030300062177307840738F09F5F5F4F220F331FBB
:10304000441FAA1FA9F333D00E2E3AF0E0E830D087
:1030500091505040E695001CCAF729D0FE2F27D08A
:10306000660F771F881FBB1F261737074807AB0758
:10307000B0E809F0BB0B802DBF01FF2793585F4FCD
:103080002AF09E3F510568F0B1C0FBC05F3FECF3F2
:10309000983EDCF3869577956795B795F7959F5F92
:1030A000C9F7880F911D9695879597F90895E1E0E6
:1030B000660F771F881FBB1F621773078407BA0745
:1030C00020F0621B730B840BBA0BEE1F88F7E095A0
:1030D0000895BCD088F09F5790F0B92F9927B75129
:1030E000A0F0D1F0660F771F881F991F1AF0BA95CC
:1030F000C9F712C0B13081F0C3D0B1E00895C0C0AB
:10310000672F782F8827B85F39F0B93FCCF38695C1
:1031100077956795B395D9F73EF49095809570951E
:1031200061957F4F8F4F9F4F0895E89409C097FB9B
:103130003EF490958095709561957F4F8F4F9F4F8E
:103140009923A9F0F92F96E9BB279395F6958795D2
:1031500077956795B795F111F8CFFAF4BB0F11F495
:1031600060FF1BC06F5F7F4F8F4F9F4F16C088233C
:1031700011F096E911C0772321F09EE8872F762F72
:1031800005C0662371F096E8862F70E060E02AF0B3
:103190009A95660F771F881FDAF7880F969587959F
:1031A00097F90895990F0008550FAA0BE0E8FEEF74
:1031B00016161706E807F907C0F012161306E407FB
:1031C000F50798F0621B730B840B950B39F40A26F4
:1031D00061F0232B242B252B21F408950A2609F4D2
:1031E000A140A6958FEF811D811D089597F99F67D6
:1031F00080E870E060E008959FEF80EC089500247F
:103200000A941616170618060906089500240A944B
:1032100012161306140605060895092E0394000CD1
:1032200011F4882352F0BB0F40F4BF2B11F460FF60
:1032300004C06F5F7F4F8F4F9F4F089557FD905889
:10324000440F551F59F05F3F71F04795880F97FB6A
:10325000991F61F09F3F79F0879508951216130624
:103260001406551FF2CF4695F1DF08C01616170653
:103270001806991FF1CF8695710561050894089588
:10328000E894BB2766277727CB0197F908958ADF53
:1032900008F48FEF08950BD0C0CFB1DF28F0B6DF70
:1032A00018F0952309F0A2CFA7CF1124EACFC6DFEB
:1032B000A0F3959FD1F3950F50E0551F629FF00149
:1032C000729FBB27F00DB11D639FAA27F00DB11DA2
:1032D000AA1F649F6627B00DA11D661F829F22272B
:1032E000B00DA11D621F739FB00DA11D621F839FB2
:1032F000A00D611D221F749F3327A00D611D231F88
:10330000849F600D211D822F762F6A2F11249F57D5
:1033100050408AF0E1F088234AF0EE0FFF1FBB1FF8
:10332000661F771F881F91505040A9F79E3F510597
:1033300070F05CCFA6CF5F3FECF3983EDCF3869550
:1033400077956795B795F795E7959F5FC1F7FE2B42
:10335000880F911D9695879597F90895283008F064
:1033600027E03327DA01990F311D87FD9160009620
:103370006105710539F432602E5F3D9330E32A9583
:10338000E1F708959F3F30F080387105610509F03D
:103390003C5F3C5F3D93913008F08068911DDF9366
:1033A000CF931F930F93FF92EF92192F987F9695CB
:1033B000E92F96959695E90FFF27EA54FF4F992735
:1033C0003327EE24FF24A701E70105900894079412
:1033D00028F4360FE71EF81E491F511D660F771F90
:1033E000881F991F0694A1F70590079428F4E70E0B
:1033F000F81E491F561FC11D770F881F991F661F92
:103400000694A1F70590079428F4F80E491F561F5B
:10341000C71FD11D880F991F661F771F0694A1F73C
:103420000590079420F4490F561FC71FD81F990F06
:10343000661F771F881F0694A9F78491109517704F
:1034400041F0D695C79557954795F794E7941A9507
:10345000C1F7ECE5F0E06894159015913591659110
:10346000959105907FE27395E118F10A430B560B95
:10347000C90BD009C0F7E10CF11E431F561FC91F2D
:10348000D01D7EF4703311F48A95E6CFE894015094
:1034900030F0080F0AF40027021708F4202F2395B4
:1034A000022F7A3328F079E37D932A95E9F710C04B
:1034B0007D932A9589F60694979567953795179584
:1034C0001794E118F10A430B560BC90BD00998F079
:1034D00023957E9173957A3308F070E37C932013E3
:1034E000B8F77E9170617D9330F0839571E37D93A1
:1034F00070E32A95E1F71124EF90FF900F911F914F
:10350000CF91DF91992787FD90950895FC01059053
:10351000615070400110D8F7809590958E0F9F1FD5
:103520000895FC016150704001900110D8F780951A
:1035300090958E0F9F1F08950F931F93CF93DF9346
:10354000182F092FEB018B8181FD03C08FEF9FEFB7
:1035500020C082FF10C04E815F812C813D814217C7
:1035600053077CF4E881F9819F012F5F3F4F398336
:103570002883108306C0E885F985812F0995892B5A
:1035800029F72E813F812F5F3F4F3F832E83812F6D
:10359000902FDF91CF911F910F910895A0E0B0E09F
:1035A000E4EDFAE10C947117FE0135966191719189
:1035B000AF0180918000909181000E94CA00E2E0FA
:1035C0000C948D17FA01AA27283051F1203181F18E
:1035D000E8946F936E7F6E5F7F4F8F4F9F4FAF4F1B
:1035E000B1E03ED0B4E03CD0670F781F891F9A1F2E
:1035F000A11D680F791F8A1F911DA11D6A0F711DE2
:10360000811D911DA11D20D009F468943F912AE0ED
:10361000269F11243019305D3193DEF6CF010895D5
:10362000462F4770405D4193B3E00FD0C9F7F6CF06
:10363000462F4F70405D4A3318F0495D31FD4052CE
:10364000419302D0A9F7EACFB4E0A6959795879564
:1036500077956795BA95C9F7009761057105089543
:103660009B01AC010A2E06945795479537952795EF
:10367000BA95C9F7620F731F841F951FA01D089587
:04368000F894FFCFEC
:1036840014000000000200000000CB150000000040
:0E36940025640055203D20252E3366202000A1
:00000001FF
