:100000000C942A000C9434000C9434000C943400AA
:100010000C9434000C9434000C9434000C94340090
:100020000C9434000C9434000C9434000C94340080
:100030000C9434000C9434000C9434000C94340070
:100040000C9434000C9434000C9434000C94340060
:100050000C94340011241FBECFE5D8E0DEBFCDBF25
:100060000E9445000C9482000C94000020E030E0D7
:10007000281739074CF4ECECFAE03197F1F700C09F
:1000800000002F5F3F4FF4CF08958FEF84BB8ABBF2
:1000900011BA82BB85BBC1E0D2E01FEF04E088E06B
:1000A000F82E809916C015BACBBB8EE190E00E9465
:1000B0003600DBBB8EE190E00E94360015BB0BBB27
:1000C0008EE190E00E943600FBBA8EE190E00E9443
:1000D00036008199E6CF15BAFBBA8EE190E00E9416
:1000E00036000BBB8EE190E00E94360015BBDBBBF7
:1000F0008EE190E00E943600CBBB8EE190E00E9442
:080100003600CFCFF894FFCFC9
:00000001FF
