:100000000C942A000C9447000C9447000C94470071
:100010000C9447000C9447000C9447000C94490042
:100020000C9447000C9447000C9447000C94470034
:100030000C9447000C94C3000C9447000C94F300FC
:100040000C9447000C9447000C9447000C94470014
:100050000C94470011241FBECFE5D8E0DEBFCDBF12
:1000600010E0A0E6B0E0E8E4F2E002C005900D92F6
:10007000A837B107D9F720E0A8E7B0E001C01D928A
:10008000AD39B207E1F70E945E000C9422010C9496
:1000900000001F920F920FB60F9211248F93B69902
:1000A00007C085B3811103C08FEF85BB01C015BAAE
:1000B0008F910F900FBE0F901F9018958FEF84BBFC
:1000C00017BA88BB8EB58B608EBD80E893E49BBD6C
:1000D0008ABD89B7806189BF789485E00E94A000BD
:1000E00080E690E00E94AB00CFEF809178008130F5
:1000F000E1F742E050E067E670E089E790E00E94B7
:100100001401892B49F48AE690E00E94AB0015BAED
:100110001092780010929C0043E050E06EE670E090
:1001200089E790E00E941401892BF9F682E790E0BC
:100130000E94AB00C5BB1092780010929C00D5CFF6
:1001400010BC89B986E880BD8AB1886D8AB90895E6
:100150005D9BFECF0895CF93DF9300D0CDB7DEB780
:1001600089839A830E94A8008981E82F9A81F92FB8
:1001700081918CB9F0939A00E09399000F900F90C1
:10018000DF91CF9108951F920F920FB60F92112415
:100190008F93EF93FF938CB180939B0080919C0091
:1001A0008F3110F010929C00E0919C00F0E0809163
:1001B0009B00E758FF4F808380919C008F5F809366
:1001C0009C0080919B008A3021F481E0809378002C
:1001D00002C010927800FF91EF918F910F900FBEA7
:1001E0000F901F9018951F920F920FB60F92112427
:1001F0008F939F93EF93FF93E0919900F0919A0072
:100200008081882341F0CF01019690939A008093DA
:10021000990080818CB9FF91EF919F918F910F9000
:100220000FBE0F901F901895FB01DC01415050400C
:1002300030F08D910190801919F40020B9F7881BD6
:08024000990B0895F894FFCF1B
:1002480068656C6C6F0A006F6E006F6E0A006F66EF
:0802580066006F66660A0000F3
:00000001FF
