:100000000C942A000C9447000C9447000C94470071
:100010000C9447000C9447000C9447000C94470044
:100020000C9447000C9447000C9447000C94470034
:100030000C9447000C9491000C9447000C94C10060
:100040000C9447000C9447000C9447000C94470014
:100050000C94470011241FBECFE5D8E0DEBFCDBF12
:1000600010E0A0E6B0E0E4EEF1E002C005900D92F1
:10007000A237B107D9F720E0A2E7B0E001C01D9296
:10008000A739B207E1F70E9449000C94F0000C94E4
:1000900000008FEF84BB85E00E946E00789480E6BC
:1000A00090E00E94790080919500883731F487E6CE
:1000B00090E00E947900109295008091720081304A
:1000C00091F742E050E06BE670E083E790E00E9439
:1000D000E200892B41F38EE690E0E3CF10BC89B9B2
:1000E00086E880BD8AB1886D8AB908955D9BFECF90
:1000F0000895CF93DF9300D0CDB7DEB789839A837D
:100100000E9476008981E82F9A81F92F81918CB91C
:10011000F0939400E09393000F900F90DF91CF91B4
:1001200008951F920F920FB60F9211248F93EF93A1
:10013000FF938CB180939500809196008F3110F0E1
:1001400010929600E0919600F0E080919500ED58B5
:10015000FF4F8083809196008F5F809396008091FF
:1001600095008A3021F481E08093720002C01092E1
:100170007200FF91EF918F910F900FBE0F901F9023
:1001800018951F920F920FB60F9211248F939F9381
:10019000EF93FF93E0919300F09194008081882386
:1001A00041F0CF0101969093940080939300808159
:1001B0008CB9FF91EF919F918F910F900FBE0F908F
:1001C0001F901895FB01DC014150504030F08D919B
:1001D0000190801919F40020B9F7881B990B089534
:0401E000F894FFCFC1
:1001E40068656C6C6F0A006F6B0A006F6E006F6E4F
:0201F4000A00FF
:00000001FF
