:100000000C94AB000C9431050C94C8000C94C800FF
:100010000C94C8000C94C8000C94C8000C94C80040
:100020000C94C8000C94C8000C94C8000C94C80030
:100030000C94C8000C94F3050C94C8000C9423068F
:100040000C94C8000C94C8000C94C8000C94C80010
:100050000C94C8006E616E00696E660000407A10F4
:10006000F35A00A0724E18090010A5D4E80000E869
:100070007648170000E40B54020000CA9A3B0000C7
:1000800000E1F505000080969800000040420F0056
:100090000000A08601000000102700000000E80317
:1000A000000000006400000000000A0000000000E2
:1000B0000100000000002C76D888DC674F0823DFA1
:1000C000C1DFAE59E1B1B796E5E3E453C63AE65174
:1000D000997696E8E6C28426EB898C9B62ED407C9B
:1000E0006FFCEFBC9C9F40F2BAA56FA5F490055A37
:1000F0002AF75C936B6CF9676DC11BFCE0E40D475C
:10010000FEF520E6B500D0ED902E0300943577057E
:100110000080841E080000204E0A000000C80C3336
:100120003333330F986E12831141EF8D2114893BC5
:10013000E65516CFFEE6DB18D1844B381BF77C1D45
:10014000901DA4BBE424203284725E228100C9F198
:1001500024ECA1E53D2711241FBECFE5D8E0DEBF8A
:10016000CDBF10E0A0E6B0E0E2EDF3E102C0059003
:100170000D92A03CB107D9F720E0A0ECB0E001C09F
:100180001D92AC3EB207E1F70E94A4050C94E7096A
:100190000C940000A3E1B0E0E0EDF0E00C940A085C
:1001A0007C011B016A01FC0117821682838181FF99
:1001B00066C3BE016F5F7F4F4B01F7019381F10171
:1001C00093FD859193FF81911F01882309F453C307
:1001D000853239F493FD859193FF81911F0185321A
:1001E00039F4B70190E00E94430956016501E5CF5B
:1001F00010E0512C20E02032A0F48B3269F030F472
:10020000803259F0833269F420612CC08D3239F08C
:10021000803339F4216026C02260246023C0286026
:1002200021C027FD27C030ED380F3A3078F426FF83
:1002300006C0FAE01F9F300D1124132F13C06AE08F
:10024000569E300D1124532E20620CC08E3221F4A4
:1002500026FD11C3206406C08C3611F4206802C04C
:10026000883641F4F10193FD859193FF81911F013F
:100270008111C1CF9BEB980F933018F42061805E01
:1002800006C09BE9980F933008F0AAC12F7E26FF85
:1002900016E02F73722E853621F4F22FF0647F2E34
:1002A00008C0863621F4622F6068762E02C01111D4
:1002B000115077FE07C01C3348F444244394410E88
:1002C00027E00BC0183030F4212F06C027E04CE3A4
:1002D000442E03C027E017E0412C560174E0A70E1E
:1002E000B11CF6016081718182819381042DA4018A
:1002F0000E9455086C01098100FF02C003FF06C07F
:1003000071FC07C072FC08C0612C08C03DE2632E7E
:1003100005C02BE2622E02C090E2692E802F8C7005
:1003200099F1662011F084E001C083E0851510F09A
:10033000512C0BC0581A73FC08C0B70180E290E042
:100340000E9443095A94C9F7F3CF662029F0B701F8
:10035000862D90E00E94430903FD03C008E510E0EC
:1003600002C004E510E0F72DF0717F2EF8018491B2
:10037000882309F476C271108052B70190E00E9480
:1003800043090F5F1F4FF2CF77FE0FC04C0C04FFE5
:1003900004C08A81813309F44A94141474F5F8E096
:1003A000F41578F588E0482E2CC076FC2AC0812F01
:1003B00090E08C159D059CF06CEFC6166FEFD6068D
:1003C00074F0772D7068772E0AC0E2E0F0E0EC0F51
:1003D000FD1FE10FF11D8081803319F411501111BF
:1003E000F4CF77FE0EC044244394410E812F90E059
:1003F000C816D9062CF41C1904C04424439401C027
:1004000010E077FE07C01C141D043CF496012F5F1A
:100410003F4F05C025E030E002C021E030E066201B
:1004200011F02F5F3F4F112331F0412F50E04F5F0C
:100430005F4F240F351F452D50E02417350714F466
:10044000521A01C0512C872D897049F4552039F07A
:10045000B70180E290E00E9443095A94F7CF6620EA
:1004600029F0B701862D90E00E94430973FC09C072
:10047000552039F0B70180E390E00E9443095A9477
:10048000F7CF77FE5FC09C2D8D2DD7FE02C090E088
:1004900080E0692E782E40E050E0C6018419910971
:1004A0009D878C87960126193709280D391D812FC4
:1004B00090E0EE27FF27E81BF90BFF87EE87FFEFA1
:1004C0006F167F0669F4B7018EE290E02B8B3A8BB2
:1004D000488B598B0E944309598948893A892B894D
:1004E000C614D70454F06C857D85661577052CF409
:1004F000F901E40FF51F818101C080E371E0671A03
:1005000071084F5F5F4FEE85FF856E167F066CF0BA
:10051000B70190E02B8B3A8B488B598B0E94430993
:100520002B893A8948895989CACF6C147D0439F4DA
:100530009A81963318F4953311F404FF81E3B701DF
:1005400090E04BC08A81813309F00F7EB70190E0C3
:100550000E944309111105C074FE18C085E490E0A3
:1005600017C0B7018EE290E00E94430982E0662442
:100570006394680EF401E80FF11D8081B70190E0EB
:100580000E944309115041F3862DF1CF85E690E09A
:10059000B7010E944309D7FC05C0C114D10439F446
:1005A00004FF05C0D194C194D1088DE201C08BE253
:1005B000B70190E00E94430980E36AE0C616D104C7
:1005C0002CF08F5FFAE0CF1AD108F7CFB70190E097
:1005D0000E944309B701C601C0960E94430941C168
:1005E000833631F0833779F0833509F058C021C064
:1005F000560172E0A70EB11CF6018081898301E0EB
:1006000010E0640114C05601F2E0AF0EB11CF60117
:10061000C080D18026FF03C0612F70E002C06FEF61
:100620007FEFC6012B8B0E9438098C012B892F7715
:1006300015C05601F2E0AF0EB11CF601C080D180AA
:1006400026FF03C0612F70E002C06FEF7FEFC6018D
:100650002B8B0E942D098C012B892068722E23FD83
:100660001AC0852D90E008171907A8F4B70180E299
:1006700090E00E9443095A94F4CFF60177FC8591EB
:1006800077FE81916F01B70190E00E9443095110FC
:100690005A94015011090115110579F7E2C0843609
:1006A00011F0893651F5560127FF09C0F4E0AF0E6D
:1006B000B11CF60160817181828193810AC0F2E0F0
:1006C000AF0EB11CF60160817181882777FD80959E
:1006D000982F022F0F7697FF08C090958095709500
:1006E00061957F4F8F4F9F4F00682AE030E0A40153
:1006F0000E948909C82EC8183EC0022F853721F4F0
:100700000F7E2AE030E01DC0097F8F3691F018F48B
:10071000883559F0B0C0803719F0883711F0ABC078
:10072000006104FF09C0046007C024FF08C0066020
:1007300006C028E030E005C020E130E002C020E142
:1007400032E0560107FF09C0F4E0AF0EB11CF6011C
:10075000608171818281938108C0F2E0AF0EB11C8B
:10076000F6016081718180E090E0A4010E94890916
:10077000C82EC8180F7706FF0BC0202F2E7FC1167A
:1007800050F404FF0AC002FD08C0202F2E7E05C0D1
:10079000DC2C202F03C0DC2C01C0D12E24FF0DC087
:1007A000FE01EC0DF11D8081803311F4297E09C01A
:1007B00022FF06C0D394D39404C0822F867809F018
:1007C000D39423FD13C020FF06C01C2DD51418F4AC
:1007D000150D1D19D52CD51468F4B70180E290E0F1
:1007E0002B8B0E944309D3942B89F5CFD51410F499
:1007F0005D1801C0512C24FF12C0B70180E390E0C6
:100800002B8B0E9443092B8922FF17C021FF03C0B5
:1008100088E590E002C088E790E0B7010CC0822F25
:10082000867859F021FD02C080E201C08BE227FDED
:100830008DE2B70190E00E944309C11638F4B70178
:1008400080E390E00E9443091150F7CFCA94F4016D
:10085000EC0DF11D8081B70190E00E944309C110A9
:10086000F5CF552009F4C2CCB70180E290E00E9498
:1008700043095A94F6CFF7018681978102C08FEF22
:100880009FEF6396E2E10C942608DA98DB9A2BB38B
:10089000982F907F2F70922B9BBB34E03A95F1F705
:1008A000DB98E4E1F1E03197F1F70000DB9A2BB33C
:1008B000F0E18F9FC00111242F70282B2BBB34E057
:1008C0003A95F1F7DB9884E191E00197F1F70000A8
:1008D000089581E00E94450489E995E10197F1F7C7
:1008E00000C008958FEF8ABB1BBA2FEF8FEA91E00B
:1008F000215080409040E1F700C00000DA9893E07A
:10090000DB9A8BB38F7080638BBBE4E0EA95F1F7E1
:10091000DB98EFEFF5E33197F1F700C0000091505D
:1009200079F7DB9A8BB38F7080628BBBF4E0FA951A
:10093000F1F7DB9884E191E00197F1F7000088E29C
:100940000E9445048CE00E94450486E00E94450414
:100950000C946904DA9ADB9A2BB3982F907F2F704E
:10096000922B9BBB34E03A95F1F7DB98E4E1F1E0A0
:100970003197F1F70000DB9A2BB3F0E18F9FC001B4
:1009800011242F70282B2BBB34E03A95F1F7DB981C
:1009900084E191E00197F1F700000895605890E438
:1009A000899F600D1124862F0C944504CF93DF930B
:1009B0001F92CDB7DEB749830E94CE044981842FB0
:1009C0000F90DF91CF910C94AA04CF93DF93FC0199
:1009D0008491EF012196882321F00E94AA04FE0150
:1009E000F7CFDF91CF9108958FE280B9089584EA1F
:1009F00086BF06B607FEFDCF81B1887F089584E9E2
:100A000086BF06B604FEFDCF089583B984E886BF8D
:100A100006B607FEFDCF81B1887F089520E4629F6E
:100A2000B0011124646866BF06B607FEFDCF23B18E
:100A3000FC01208381B1887F089520E030E02817F1
:100A400039074CF4ECECFAE03197F1F700C0000004
:100A50002F5F3F4FF4CF08950E94AA0480E090E0FA
:100A600008951F920F920FB60F9211242F933F9368
:100A70004F935F936F937F938F939F93AF93BF93A6
:100A8000EF93FF93CF93DF93CDB7DEB72797DEBF0A
:100A9000CDBFAE014B5F5F4FBE016A5F7F4FCE019E
:100AA00007960E941E079E012F5F3F4FAE014E5FCB
:100AB0005F4FBE016D5F7F4FCE0104960E947E079F
:100AC00060E080E00E94CE0489811F928F938A812A
:100AD0001F928F938B811F928F938CE790E09F934F
:100AE0008F930E94750960E081E00E94CE048D81A1
:100AF0001F928F938E811F928F938F811F928F935E
:100B000083E990E09F938F930E9475090FB6F89444
:100B1000DEBF0FBECDBF27960FB6F894DEBF0FBE67
:100B2000CDBFDF91CF91FF91EF91BF91AF919F9199
:100B30008F917F916F915F914F913F912F910F9086
:100B40000FBE0F901F9018950E94720480E690E0EF
:100B50009093E9008093E8000E94F40485B78260D6
:100B600085BF8BB780648BBF20E040E061E080E010
:100B70000E94540600E020E040E060E080E00E9437
:100B8000800620E040E060E080E00E94CE0678949D
:100B9000FFCF10BC89B986E880BD8AB1886D8AB95B
:100BA00008955D9BFECF0895CF93DF9300D0CDB71E
:100BB000DEB72091C0002111FCCF89839A830E9467
:100BC000D10521E02093C0008981E82F9A81F92F77
:100BD00081918CB9F093E300E093E2000F900F90C5
:100BE000DF91CF9108951F920F920FB60F921124AB
:100BF0008F93EF93FF938CB18093E4008091E50095
:100C00008F3110F01092E500E091E500F0E0809166
:100C1000E400EE53FF4F80838091E5008F5F809367
:100C2000E5008091E4008A3021F481E08093C100E6
:100C300002C01092C100FF91EF918F910F900FBEF3
:100C40000F901F9018951F920F920FB60F921124BC
:100C50008F939F93EF93FF93E091E200F091E30075
:100C60008081882349F0CF0101969093E30080931F
:100C7000E20080818CB902C01092C000FF91EF9118
:100C80009F918F910F900FBE0F901F9018950E940B
:100C9000F70480ED0E94050580E00E94050580E0D4
:100CA0000E9405050C94FF041F93CF93DF9300D09F
:100CB0001F92CDB7DEB7182F2B834A8369830E941A
:100CC000F70480ED0E94050587E00E9405054A8132
:100CD000440F2B81422B698120E1629FB0011124D6
:100CE000462BE0E81E9FC0011124842B0E940505BD
:100CF0000F900F900F90DF91CF911F910C94FF04F4
:100D0000EF92FF920F931F93CF93DF9300D0CDB755
:100D1000DEB7E82E162F2A8349830E94F70480ED60
:100D20000E94050580E00E9405058AE0F82E8E2DC0
:100D30006F2D0E94EA0730E1839F900D1124892FC7
:100D40000E940505812F6F2D0E94EA07E0E18E9F2A
:100D5000900D1124892F0E940505F0E20F9F80015C
:100D600011242A8180E4289F90011124202B49819D
:100D7000842F6F2D0E94EA07E0E18E9F900D1124D1
:100D8000892F822B0E9405050F900F90DF91CF9144
:100D90001F910F91FF90EF900C94FF04EF92FF9240
:100DA0000F931F93CF93DF9300D0CDB7DEB7082FFB
:100DB000162F2A8349830E94F70480ED0E940505BF
:100DC00083E00E9405050770802F90E02AE0E22E64
:100DD000F12CB7010E94F6070E9405051F71812FB3
:100DE00090E0B7010E94F60790E1699F800D112401
:100DF0000E94050549814F70842F90E0B7010E9441
:100E0000F607E0E16E9F800D11240E9405052A81FE
:100E10002F77822F90E0B7010E94F607F0E16F9FD5
:100E2000800D11240E9405050F900F90DF91CF9146
:100E30001F910F91FF90EF900C94FF04CF92DF92DF
:100E4000EF92FF920F931F93CF93DF931F92CDB733
:100E5000DEB78C017B016A010E94F70480ED0E94DD
:100E6000050580E00E9405050E94F70481ED0E94BF
:100E7000050561E0CE0101960E940E052981922FA1
:100E80009695969596959E70892F880F880F890F55
:100E90002F70820FF601808361E0CE0101960E94DF
:100EA0000E052981922F9695969596959E70892F7D
:100EB000880F880F890F2F70820FF701808360E001
:100EC000CE0101960E940E052981922F9695969546
:100ED00096959670892F880F880F890F2F70820F33
:100EE000F80180830E94FF040F90DF91CF911F9142
:100EF0000F91FF90EF90DF90CF900895AF92BF9247
:100F0000CF92DF92EF92FF920F931F93CF93DF93D5
:100F10001F92CDB7DEB78C017B015A0169010E9497
:100F2000F70480ED0E94050583E00E9405050E94FC
:100F3000F70481ED0E94050561E0C8010E940E05DD
:100F400061E0CE0101960E940E058981982F92954D
:100F50009F708F702AE0929F800D1124F70180838B
:100F600061E0CE0101960E940E058981982F92952D
:100F70009F708F70FAE09F9F800D1124F501808390
:100F800060E0CE0101960E940E058981982F92950E
:100F90009F708F70FAE09F9F800D1124F60180836F
:100FA0000E94FF040F90DF91CF911F910F91FF904E
:100FB000EF90DF90CF90BF90AF9008958DB1816595
:100FC0008DB987B3806B87BB08958FB9779BFECFB0
:100FD0008FB10895991B79E004C0991F961708F006
:100FE000961B881F7A95C9F78095089597FB072E61
:100FF00016F4009407D077FD09D00E94410807FC41
:1010000005D03EF4909581959F4F08957095619518
:101010007F4F08952F923F924F925F926F927F92EF
:101020008F929F92AF92BF92CF92DF92EF92FF92F8
:101030000F931F93CF93DF93CDB7DEB7CA1BDB0BA4
:101040000FB6F894DEBF0FBECDBF09942A88398849
:1010500048885F846E847D848C849B84AA84B98450
:10106000C884DF80EE80FD800C811B81AA81B9815C
:10107000CE0FD11D0FB6F894DEBF0FBECDBFED0170
:101080000895AA1BBB1B51E107C0AA1FBB1FA617CF
:10109000B70710F0A61BB70B881F991F5A95A9F721
:1010A00080959095BC01CD010895283008F027E087
:1010B0003327DA01990F311D87FD91600096610594
:1010C000710539F432602E5F3D9330E32A95E1F7E4
:1010D00008959F3F30F080387105610509F03C5F4D
:1010E0003C5F3D93913008F08068911DDF93CF9372
:1010F0001F930F93FF92EF92192F987F9695E92FE8
:1011000096959695E90FFF27EA54FF4F99273327C5
:10111000EE24FF24A701E70105900894079428F422
:10112000360FE71EF81E491F511D660F771F881FD7
:10113000991F0694A1F70590079428F4E70EF81E6E
:10114000491F561FC11D770F881F991F661F0694E0
:10115000A1F70590079428F4F80E491F561FC71FE2
:10116000D11D880F991F661F771F0694A1F7059060
:10117000079420F4490F561FC71FD81F990F661FE9
:10118000771F881F0694A9F784911095177041F076
:10119000D695C79557954795F794E7941A95C1F753
:1011A000ECE5F0E068941590159135916591959175
:1011B00005907FE27395E118F10A430B560BC90BBA
:1011C000D009C0F7E10CF11E431F561FC91FD01DE7
:1011D0007EF4703311F48A95E6CFE894015030F034
:1011E000080F0AF40027021708F4202F2395022F76
:1011F0007A3328F079E37D932A95E9F710C07D933F
:101200002A9589F6069497956795379517951794BB
:10121000E118F10A430B560BC90BD00998F023953E
:101220007E9173957A3308F070E37C932013B8F7BE
:101230007E9170617D9330F0839571E37D9370E3CF
:101240002A95E1F71124EF90FF900F911F91CF9114
:10125000DF91992787FD90950895FC0105906150D5
:1012600070400110D8F7809590958E0F9F1F0895BC
:10127000FC016150704001900110D8F78095909565
:101280008E0F9F1F08950F931F93CF93DF93182FF7
:10129000092FEB018B8181FD03C08FEF9FEF20C0F1
:1012A00082FF10C04E815F812C813D814217530720
:1012B0007CF4E881F9819F012F5F3F4F39832883B8
:1012C000108306C0E885F985812F0995892B29F7B8
:1012D0002E813F812F5F3F4F3F832E83812F902FA1
:1012E000DF91CF911F910F910895A0E0B0E0EBE75F
:1012F000F9E00C941A08FE01359661917191AF01E5
:101300008091E8009091E9000E94CA00E2E00C940C
:101310003608FA01AA27283051F1203181F1E894EA
:101320006F936E7F6E5F7F4F8F4F9F4FAF4FB1E0D8
:101330003ED0B4E03CD0670F781F891F9A1FA11DD3
:10134000680F791F8A1F911DA11D6A0F711D811DD4
:10135000911DA11D20D009F468943F912AE0269F99
:1013600011243019305D3193DEF6CF010895462FF8
:101370004770405D4193B3E00FD0C9F7F6CF462FD9
:101380004F70405D4A3318F0495D31FD4052419342
:1013900002D0A9F7EACFB4E0A695979587957795FF
:1013A0006795BA95C9F700976105710508959B0186
:1013B000AC010A2E06945795479537952795BA950F
:1013C000C9F7620F731F841F951FA01D0895F8941D
:0213D000FFCF4D
:1013D20000000002000000002C0500000000A80030
:1013E200AC00AF00B200B600B900BD004461746544
:1013F2003A20253032642F253032642F32302530A6
:1014020032640054696D653A20253032643A2530E1
:1014120032643A2530326400506F6E0057740053C4
:101422007200437A7700506900536F62004E640085
:00000001FF
