:100000000C94AB000C94C8000C94C8000C94C8006D
:100010000C94C8000C94C8000C94C8000C94C80040
:100020000C94C8000C94C8000C94C8000C94C80030
:100030000C94C8000C9428060C94C8000C94580624
:100040000C94C8000C94C8000C94C8000C94C80010
:100050000C94C8006E616E00696E660000407A10F4
:10006000F35A00A0724E18090010A5D4E80000E869
:100070007648170000E40B54020000CA9A3B0000C7
:1000800000E1F505000080969800000040420F0056
:100090000000A08601000000102700000000E80317
:1000A000000000006400000000000A0000000000E2
:1000B0000100000000002C76D888DC674F0823DFA1
:1000C000C1DFAE59E1B1B796E5E3E453C63AE65174
:1000D000997696E8E6C28426EB898C9B62ED407C9B
:1000E0006FFCEFBC9C9F40F2BAA56FA5F490055A37
:1000F0002AF75C936B6CF9676DC11BFCE0E40D475C
:10010000FEF520E6B500D0ED902E0300943577057E
:100110000080841E080000204E0A000000C80C3336
:100120003333330F986E12831141EF8D2114893BC5
:10013000E65516CFFEE6DB18D1844B381BF77C1D45
:10014000901DA4BBE424203284725E228100C9F198
:1001500024ECA1E53D2711241FBECFE5D8E0DEBF8A
:10016000CDBF10E0A0E6B0E0E8E3F6E102C0059004
:100170000D92A639B107D9F720E0A6E9B0E001C099
:100180001D92A23CB207E1F70E9461050C941A0B84
:100190000C940000A3E1B0E0E0EDF0E00C94B306B5
:1001A0007C011B016A01FC0117821682838181FF99
:1001B00066C3BE016F5F7F4F4B01F7019381F10171
:1001C00093FD859193FF81911F01882309F453C307
:1001D000853239F493FD859193FF81911F0185321A
:1001E00039F4B70190E00E94F80856016501E5CFA7
:1001F00010E0512C20E02032A0F48B3269F030F472
:10020000803259F0833269F420612CC08D3239F08C
:10021000803339F4216026C02260246023C0286026
:1002200021C027FD27C030ED380F3A3078F426FF83
:1002300006C0FAE01F9F300D1124132F13C06AE08F
:10024000569E300D1124532E20620CC08E3221F4A4
:1002500026FD11C3206406C08C3611F4206802C04C
:10026000883641F4F10193FD859193FF81911F013F
:100270008111C1CF9BEB980F933018F42061805E01
:1002800006C09BE9980F933008F0AAC12F7E26FF85
:1002900016E02F73722E853621F4F22FF0647F2E34
:1002A00008C0863621F4622F6068762E02C01111D4
:1002B000115077FE07C01C3348F444244394410E88
:1002C00027E00BC0183030F4212F06C027E04CE3A4
:1002D000442E03C027E017E0412C560174E0A70E1E
:1002E000B11CF6016081718182819381042DA4018A
:1002F0000E94FC076C01098100FF02C003FF06C0D9
:1003000071FC07C072FC08C0612C08C03DE2632E7E
:1003100005C02BE2622E02C090E2692E802F8C7005
:1003200099F1662011F084E001C083E0851510F09A
:10033000512C0BC0581A73FC08C0B70180E290E042
:100340000E94F8085A94C9F7F3CF662029F0B70144
:10035000862D90E00E94F80803FD03C008E510E038
:1003600002C004E510E0F72DF0717F2EF8018491B2
:10037000882309F476C271108052B70190E00E9480
:10038000F8080F5F1F4FF2CF77FE0FC04C0C04FF31
:1003900004C08A81813309F44A94141474F5F8E096
:1003A000F41578F588E0482E2CC076FC2AC0812F01
:1003B00090E08C159D059CF06CEFC6166FEFD6068D
:1003C00074F0772D7068772E0AC0E2E0F0E0EC0F51
:1003D000FD1FE10FF11D8081803319F411501111BF
:1003E000F4CF77FE0EC044244394410E812F90E059
:1003F000C816D9062CF41C1904C04424439401C027
:1004000010E077FE07C01C141D043CF496012F5F1A
:100410003F4F05C025E030E002C021E030E066201B
:1004200011F02F5F3F4F112331F0412F50E04F5F0C
:100430005F4F240F351F452D50E02417350714F466
:10044000521A01C0512C872D897049F4552039F07A
:10045000B70180E290E00E94F8085A94F7CF662036
:1004600029F0B701862D90E00E94F80873FC09C0BE
:10047000552039F0B70180E390E00E94F8085A94C3
:10048000F7CF77FE5FC09C2D8D2DD7FE02C090E088
:1004900080E0692E782E40E050E0C6018419910971
:1004A0009D878C87960126193709280D391D812FC4
:1004B00090E0EE27FF27E81BF90BFF87EE87FFEFA1
:1004C0006F167F0669F4B7018EE290E02B8B3A8BB2
:1004D000488B598B0E94F808598948893A892B8999
:1004E000C614D70454F06C857D85661577052CF409
:1004F000F901E40FF51F818101C080E371E0671A03
:1005000071084F5F5F4FEE85FF856E167F066CF0BA
:10051000B70190E02B8B3A8B488B598B0E94F808DF
:100520002B893A8948895989CACF6C147D0439F4DA
:100530009A81963318F4953311F404FF81E3B701DF
:1005400090E04BC08A81813309F00F7EB70190E0C3
:100550000E94F808111105C074FE18C085E490E0EF
:1005600017C0B7018EE290E00E94F80882E066248E
:100570006394680EF401E80FF11D8081B70190E0EB
:100580000E94F808115041F3862DF1CF85E690E0E6
:10059000B7010E94F808D7FC05C0C114D10439F492
:1005A00004FF05C0D194C194D1088DE201C08BE253
:1005B000B70190E00E94F80880E36AE0C616D10413
:1005C0002CF08F5FFAE0CF1AD108F7CFB70190E097
:1005D0000E94F808B701C601C0960E94F80841C100
:1005E000833631F0833779F0833509F058C021C064
:1005F000560172E0A70EB11CF6018081898301E0EB
:1006000010E0640114C05601F2E0AF0EB11CF60117
:10061000C080D18026FF03C0612F70E002C06FEF61
:100620007FEFC6012B8B0E94ED088C012B892F7761
:1006300015C05601F2E0AF0EB11CF601C080D180AA
:1006400026FF03C0612F70E002C06FEF7FEFC6018D
:100650002B8B0E94D4088C012B892068722E23FDDD
:100660001AC0852D90E008171907A8F4B70180E299
:1006700090E00E94F8085A94F4CFF60177FC859137
:1006800077FE81916F01B70190E00E94F808511048
:100690005A94015011090115110579F7E2C0843609
:1006A00011F0893651F5560127FF09C0F4E0AF0E6D
:1006B000B11CF60160817181828193810AC0F2E0F0
:1006C000AF0EB11CF60160817181882777FD80959E
:1006D000982F022F0F7697FF08C090958095709500
:1006E00061957F4F8F4F9F4F00682AE030E0A40153
:1006F0000E943E09C82EC8183EC0022F853721F43B
:100700000F7E2AE030E01DC0097F8F3691F018F48B
:10071000883559F0B0C0803719F0883711F0ABC078
:10072000006104FF09C0046007C024FF08C0066020
:1007300006C028E030E005C020E130E002C020E142
:1007400032E0560107FF09C0F4E0AF0EB11CF6011C
:10075000608171818281938108C0F2E0AF0EB11C8B
:10076000F6016081718180E090E0A4010E943E0961
:10077000C82EC8180F7706FF0BC0202F2E7FC1167A
:1007800050F404FF0AC002FD08C0202F2E7E05C0D1
:10079000DC2C202F03C0DC2C01C0D12E24FF0DC087
:1007A000FE01EC0DF11D8081803311F4297E09C01A
:1007B00022FF06C0D394D39404C0822F867809F018
:1007C000D39423FD13C020FF06C01C2DD51418F4AC
:1007D000150D1D19D52CD51468F4B70180E290E0F1
:1007E0002B8B0E94F808D3942B89F5CFD51410F4E5
:1007F0005D1801C0512C24FF12C0B70180E390E0C6
:100800002B8B0E94F8082B8922FF17C021FF03C001
:1008100088E590E002C088E790E0B7010CC0822F25
:10082000867859F021FD02C080E201C08BE227FDED
:100830008DE2B70190E00E94F808C11638F4B701C4
:1008400080E390E00E94F8081150F7CFCA94F401B9
:10085000EC0DF11D8081B70190E00E94F808C110F5
:10086000F5CF552009F4C2CCB70180E290E00E9498
:10087000F8085A94F6CFF7018681978102C08FEF6E
:100880009FEF6396E2E10C94CF06DA98DB9A2BB3E4
:10089000982F907F2F70922B9BBB34E03A95F1F705
:1008A000DB98E4E1F1E03197F1F70000DB9A2BB33C
:1008B000F0E18F9FC00111242F70282B2BBB34E057
:1008C0003A95F1F7DB9884E191E00197F1F70000A8
:1008D000089581E00E94450489E995E10197F1F7C7
:1008E00000C008958FEF8ABB1BBA2FEF8FEA91E00B
:1008F000215080409040E1F700C00000DA9893E07A
:10090000DB9A8BB38F7080638BBBE4E0EA95F1F7E1
:10091000DB98EFEFF5E33197F1F700C0000091505D
:1009200079F7DB9A8BB38F7080628BBBF4E0FA951A
:10093000F1F7DB9884E191E00197F1F7000088E29C
:100940000E9445048CE00E94450486E00E94450414
:100950000C946904DA9ADB9A2BB3982F907F2F704E
:10096000922B9BBB34E03A95F1F7DB98E4E1F1E0A0
:100970003197F1F70000DB9A2BB3F0E18F9FC001B4
:1009800011242F70282B2BBB34E03A95F1F7DB981C
:1009900084E191E00197F1F700000895605890E438
:1009A000899F600D1124862F0C944504CF93DF930B
:1009B0001F92CDB7DEB749830E94CE044981842FB0
:1009C0000F90DF91CF910C94AA04CF93DF93FC0199
:1009D0008491EF012196882321F00E94AA04FE0150
:1009E000F7CFDF91CF910895BB9A8FE295E0019701
:1009F000F1F7BB98E1ECF0E03197F1F700C086B376
:100A0000EDE6F4E03197F1F700C088700895813089
:100A100051F4BB9A86E18A95F1F70000BB988CEE01
:100A20008A95F1F70895811109C0BB9A8DED8A95D9
:100A3000F1F70000BB9885E28A95F1F70895BB9A1B
:100A400086E18A95F1F70000BB9891E29A95F1F75B
:100A5000000086B39BEC9A95F1F788700895CF93C8
:100A6000DF93D82FC8E08D2F81700E940705D6959F
:100A7000C150C9F7DF91CF910895CF93DF93D8E0AC
:100A8000C0E0C6950E941F058111C068D150C9F70A
:100A90008C2FDF91CF91089520E030E0281739079F
:100AA0004CF4ECECFAE03197F1F700C000002F5F56
:100AB0003F4FF4CF089590E00E94AA0480E090E0B8
:100AC0000895CF93DF93CDB7DEB7A0970FB6F89414
:100AD000DEBF0FBECDBF0E94880685E00E94FE05E6
:100AE000789480E790E00E94090680E690E0909379
:100AF000BF008093BE000E94720497E7E92E90E049
:100B0000F92E21E7A22E22E0B22E33E8C32E30E0E8
:100B1000D32E40E2942E0E948C060E949D068C01EA
:100B200060E070E080E090E00E94CE04B801882789
:100B300077FD8095982F0E94EC0620E030E040E899
:100B40005DE30E942707562E672E782E892E9F93ED
:100B50008F937F936F93FF92EF920E942A0960E038
:100B600070E081E090E00E94CE0498012F7033275E
:100B70002A9DC0012B9D900D3A9D900D11249F93AD
:100B80008F9384E0159507958A95E1F71F930F934E
:100B9000DF92CF920E942A09809197000FB6F894B5
:100BA000DEBF0FBECDBF813009F0B5CF44E050E0CD
:100BB00061E970E088E990E00E94DF08892B91F4F8
:100BC0008E010F5F1F4F24E045E0652D762D872DA8
:100BD000982D0E94DB07C8010E94090685E790E076
:100BE0000E940906109297001092BB00E8E9F0E01D
:100BF000DF01292D1D922A95E9F78DCF10BC89B907
:100C000086E880BD8AB1886D8AB908955D9BFECF64
:100C10000895CF93DF9300D0CDB7DEB72091960033
:100C20002111FCCF89839A830E94060621E020933C
:100C300096008981E82F9A81F92F81918CB9F093E0
:100C4000B900E093B8000F900F90DF91CF91089515
:100C50001F920F920FB60F9211248F93EF93FF9371
:100C60008CB18093BA008091BB008F3110F010924C
:100C7000BB00E091BB00F0E08091BA00E856FF4F66
:100C800080838091BB008F5F8093BB008091BA000E
:100C90008A3021F481E08093970002C0109297007F
:100CA000FF91EF918F910F900FBE0F901F901895AD
:100CB0001F920F920FB60F9211248F939F93EF9371
:100CC000FF93E091B800F091B9008081882349F04A
:100CD000CF0101969093B9008093B80080818CB9C0
:100CE00002C010929600FF91EF919F918F910F900B
:100CF0000FBE0F901F9018958DB181658DB987B388
:100D0000806B87BB08958FB9779BFECF8FB1089515
:100D10000E94F4040C94F4040E94F404811109C0AC
:100D20008CEC0E942F0584E40E942F05B39BFECF1C
:100D300002C081E0089580E00895CF93DF930E9480
:100D4000F4048CEC0E942F058EEB0E942F050E946C
:100D50003D05C82FD0E00E943D059E01382BC901FA
:100D6000DF91CF9108952F923F924F925F926F92B1
:100D70007F928F929F92AF92BF92CF92DF92EF922B
:100D8000FF920F931F93CF93DF93CDB7DEB7CA1BAC
:100D9000DB0B0FB6F894DEBF0FBECDBF09942A88D7
:100DA000398848885F846E847D848C849B84AA847F
:100DB000B984C884DF80EE80FD800C811B81AA810C
:100DC000B981CE0FD11D0FB6F894DEBF0FBECDBFD7
:100DD000ED010895E89409C097FB3EF49095809545
:100DE000709561957F4F8F4F9F4F9923A9F0F92FF1
:100DF00096E9BB279395F695879577956795B7956F
:100E0000F111F8CFFAF4BB0F11F460FF1BC06F5F54
:100E10007F4F8F4F9F4F16C0882311F096E911C066
:100E2000772321F09EE8872F762F05C0662371F087
:100E300096E8862F70E060E02AF09A95660F771F9B
:100E4000881FDAF7880F9695879597F908950BD044
:100E500078C069D028F06ED018F0952309F05AC0F8
:100E60005FC01124A2C07ED0A0F3959FD1F3950F4F
:100E700050E0551F629FF001729FBB27F00DB11D1E
:100E8000639FAA27F00DB11DAA1F649F6627B00DAE
:100E9000A11D661F829F2227B00DA11D621F739F97
:100EA000B00DA11D621F839FA00D611D221F749FA5
:100EB0003327A00D611D231F849F600D211D822FEC
:100EC000762F6A2F11249F5750408AF0E1F0882333
:100ED0004AF0EE0FFF1FBB1F661F771F881F915040
:100EE0005040A9F79E3F510570F014C05EC05F3FAF
:100EF000ECF3983EDCF3869577956795B795F79573
:100F0000E7959F5FC1F7FE2B880F911D96958795FA
:100F100097F9089597F99F6780E870E060E0089579
:100F20009FEF80EC089500240A9416161706180601
:100F30000906089500240A941216130614060506DD
:100F40000895092E0394000C11F4882352F0BB0F6E
:100F500040F4BF2B11F460FF04C06F5F7F4F8F4FD1
:100F60009F4F089557FD9058440F551F59F05F3F0C
:100F700071F04795880F97FB991F61F09F3F79F0BB
:100F800087950895121613061406551FF2CF46953D
:100F9000F1DF08C0161617061806991FF1CF8695BF
:100FA0007105610508940895E894BB2766277727A3
:100FB000CB0197F90895EF920F931F93CF93DF938F
:100FC000E80147FF02C034E101C034E0E42FFF270D
:100FD000E7FDF095F7FF03C0F195E195F109E32EE8
:100FE000022F2E2FAE010E949C09CE01DF91CF91DE
:100FF0001F910F91EF900895283008F027E03327D4
:10100000DA01990F311D87FD916000966105710528
:1010100039F432602E5F3D9330E32A95E1F708956D
:101020009F3F30F080387105610509F03C5F3C5FFF
:101030003D93913008F08068911DDF93CF931F930B
:101040000F93FF92EF92192F987F9695E92F96951F
:101050009695E90FFF27EA54FF4F99273327EE248F
:10106000FF24A701E70105900894079428F4360FA0
:10107000E71EF81E491F511D660F771F881F991F15
:101080000694A1F70590079428F4E70EF81E491F6F
:10109000561FC11D770F881F991F661F0694A1F761
:1010A0000590079428F4F80E491F561FC71FD11D3D
:1010B000880F991F661F771F0694A1F70590079464
:1010C00020F4490F561FC71FD81F990F661F771F9F
:1010D000881F0694A9F784911095177041F0D69552
:1010E000C79557954795F794E7941A95C1F7ECE59E
:1010F000F0E0689415901591359165919591059062
:101100007FE27395E118F10A430B560BC90BD00926
:10111000C0F7E10CF11E431F561FC91FD01D7EF4FE
:10112000703311F48A95E6CFE894015030F0080F3F
:101130000AF40027021708F4202F2395022F7A3390
:1011400028F079E37D932A95E9F710C07D932A95DD
:1011500089F6069497956795379517951794E11832
:10116000F10A430B560BC90BD00998F023957E91D9
:1011700073957A3308F070E37C932013B8F77E916F
:1011800070617D9330F0839571E37D9370E32A95D0
:10119000E1F71124EF90FF900F911F91CF91DF9114
:1011A000992787FD90950895FC0105906150704046
:1011B0000110D8F7809590958E0F9F1F0895FB0121
:1011C000DC014150504030F08D910190801919F4AC
:1011D0000020B9F7881B990B0895FC0161507040FD
:1011E00001900110D8F7809590958E0F9F1F08955C
:1011F0000F931F93CF93DF93182F092FEB018B8150
:1012000081FD03C08FEF9FEF20C082FF10C04E8191
:101210005F812C813D81421753077CF4E881F9817D
:101220009F012F5F3F4F39832883108306C0E885D5
:10123000F985812F0995892B29F72E813F812F5F11
:101240003F4F3F832E83812F902FDF91CF911F91AE
:101250000F910895A0E0B0E0E0E3F9E00C94C3063C
:10126000FE01359661917191AF018091BE00909120
:10127000BF000E94CA00E2E00C94DF06FA01AA2730
:10128000283051F1203181F1E8946F936E7F6E5FC9
:101290007F4F8F4F9F4FAF4FB1E03ED0B4E03CD077
:1012A000670F781F891F9A1FA11D680F791F8A1F5A
:1012B000911DA11D6A0F711D811D911DA11D20D0C1
:1012C00009F468943F912AE0269F11243019305D7B
:1012D0003193DEF6CF010895462F4770405D41936C
:1012E000B3E00FD0C9F7F6CF462F4F70405D4A33B9
:1012F00018F0495D31FD4052419302D0A9F7EACF81
:10130000B4E0A6959795879577956795BA95C9F7AF
:1013100000976105710508959B01AC010A2E0694A2
:101320005795479537952795BA95C9F7620F731F5B
:10133000841F951FA01D08956F927F929F92AF9278
:10134000BF92CF92DF92EF92FF920F931F93CF93B2
:10135000DF93CDB7DEB729970FB6F894DEBF0FBE87
:10136000CDBF6A01B22E102F0C3320F4FF24F3946A
:10137000F00E02C04CE3F42E0F2D27E0AE014F5FBC
:101380005F4F0E94FC077981272F2970213031F0AF
:10139000E1FC06C0E0FC06C060E005C06DE203C0F1
:1013A0006BE201C060E2AE2DA07173FF36C0662310
:1013B00011F084E001C083E08B1510F4B81A01C06D
:1013C000B12CA1110BC0F6018B2D90E2882319F0EE
:1013D00091938150FBCFCB0CD11CB12C662331F003
:1013E000F601608396012F5F3F4F6901C6010396A6
:1013F000E2FE05C02EE4F601208331E404C02EE6AF
:10140000F601208331E631832283FC012B2D30E26B
:101410002223F1F131932150FBCF72FF40C06623AC
:1014200011F084E001C083E08B1510F4B81A01C0FC
:10143000B12CA1110BC0F6018B2D90E2882319F07D
:1014400091938150FBCFCB0CD11CB12C662331F092
:10145000F601608396012F5F3F4F6901C601039635
:10146000E2FE07C029E4F60120832EE4218326E46E
:1014700006C029E6F60120832EE6218326E6228394
:10148000FC012B2D30E2222319F031932150FBCFA8
:10149000FC01EB0DF11D10828EEF9FEFB7C0B1E0A4
:1014A000611101C0B0E04B2F50E01816190624F46A
:1014B0009C012F5F3F4F02C021E030E0240F351F19
:1014C000112329F0412F50E04F5F5F4F02C040E0F1
:1014D00050E0420F531F2B2D30E04217530714F4F6
:1014E000B41A01C0B12C2E2D287159F4F6012B2D00
:1014F00030E2222319F031932150FBCFCB0CD11CC9
:10150000B12CBB2331F0F601608396012F5F3F4F72
:101510006901A1110BC0F6012B2D30E3222319F034
:1015200031932150FBCFCB0CD11CB12CF80E0A818A
:10153000372F3071A32E74FF03C0013309F4FA94DE
:101540001F142CF42F2D293018F028E001C021E0C1
:10155000682F392F97FF02C060E030E0462F532FED
:10156000612C712C3EE2932EBC01621B71099B0120
:10157000DC01A41BB50BE1E0F0E0EC0FFD1FAE0FAA
:10158000BF1FE12EF12CF194E194F1084F3FFFEFE2
:101590005F0731F4F6019082B6016F5F7F4F6B01F8
:1015A000841795074CF02417350734F4BD01660DF8
:1015B000771DFB01118101C010E341505109FFEF7C
:1015C0006F1A7F0AB6016F5F7F4F4E155F0524F0DB
:1015D000F60110836B01DACF4817590739F4063347
:1015E00020F4053319F4A11001C011E3F6011083B2
:1015F000FB018B2D90E2882319F091938150FBCF52
:10160000FB01EB0DF11D108280E090E029960FB6F2
:10161000F894DEBF0FBECDBFDF91CF911F910F9128
:10162000FF90EF90DF90CF90BF90AF909F907F9012
:081630006F900895F894FFCFBC
:1016380000000002000000005B050000000014002C
:1016480068656C6C6F0A0054203D2025352E316684
:10165800DF430054203D2534642E25303464DF43B5
:061668000074656D7000C6
:00000001FF
