:100000000C94AB000C94C8000C94C8000C94C8006D
:100010000C94C8000C94C8000C94C8000C941305F0
:100020000C94C8000C94C8000C94C8000C94C80030
:100030000C94C8000C94F1060C94C8000C94210791
:100040000C94C8000C94C8000C94C8000C94C80010
:100050000C94C8006E616E00696E660000407A10F4
:10006000F35A00A0724E18090010A5D4E80000E869
:100070007648170000E40B54020000CA9A3B0000C7
:1000800000E1F505000080969800000040420F0056
:100090000000A08601000000102700000000E80317
:1000A000000000006400000000000A0000000000E2
:1000B0000100000000002C76D888DC674F0823DFA1
:1000C000C1DFAE59E1B1B796E5E3E453C63AE65174
:1000D000997696E8E6C28426EB898C9B62ED407C9B
:1000E0006FFCEFBC9C9F40F2BAA56FA5F490055A37
:1000F0002AF75C936B6CF9676DC11BFCE0E40D475C
:10010000FEF520E6B500D0ED902E0300943577057E
:100110000080841E080000204E0A000000C80C3336
:100120003333330F986E12831141EF8D2114893BC5
:10013000E65516CFFEE6DB18D1844B381BF77C1D45
:10014000901DA4BBE424203284725E228100C9F198
:1001500024ECA1E53D2711241FBECFE5D8E0DEBF8A
:10016000CDBF10E0A0E6B0E0E4E3F6E102C0059008
:100170000D92A239B107D9F720E0A2E9B0E001C0A1
:100180001D92AE3BB207E1F70E9453050C94180B89
:100190000C940000A3E1B0E0E0EDF0E00C94510716
:1001A0007C011B016A01FC0117821682838181FF99
:1001B00066C3BE016F5F7F4F4B01F7019381F10171
:1001C00093FD859193FF81911F01882309F453C307
:1001D000853239F493FD859193FF81911F0185321A
:1001E00039F4B70190E00E94640A56016501E5CF39
:1001F00010E0512C20E02032A0F48B3269F030F472
:10020000803259F0833269F420612CC08D3239F08C
:10021000803339F4216026C02260246023C0286026
:1002200021C027FD27C030ED380F3A3078F426FF83
:1002300006C0FAE01F9F300D1124132F13C06AE08F
:10024000569E300D1124532E20620CC08E3221F4A4
:1002500026FD11C3206406C08C3611F4206802C04C
:10026000883641F4F10193FD859193FF81911F013F
:100270008111C1CF9BEB980F933018F42061805E01
:1002800006C09BE9980F933008F0AAC12F7E26FF85
:1002900016E02F73722E853621F4F22FF0647F2E34
:1002A00008C0863621F4622F6068762E02C01111D4
:1002B000115077FE07C01C3348F444244394410E88
:1002C00027E00BC0183030F4212F06C027E04CE3A4
:1002D000442E03C027E017E0412C560174E0A70E1E
:1002E000B11CF6016081718182819381042DA4018A
:1002F0000E9430096C01098100FF02C003FF06C0A3
:1003000071FC07C072FC08C0612C08C03DE2632E7E
:1003100005C02BE2622E02C090E2692E802F8C7005
:1003200099F1662011F084E001C083E0851510F09A
:10033000512C0BC0581A73FC08C0B70180E290E042
:100340000E94640A5A94C9F7F3CF662029F0B701D6
:10035000862D90E00E94640A03FD03C008E510E0CA
:1003600002C004E510E0F72DF0717F2EF8018491B2
:10037000882309F476C271108052B70190E00E9480
:10038000640A0F5F1F4FF2CF77FE0FC04C0C04FFC3
:1003900004C08A81813309F44A94141474F5F8E096
:1003A000F41578F588E0482E2CC076FC2AC0812F01
:1003B00090E08C159D059CF06CEFC6166FEFD6068D
:1003C00074F0772D7068772E0AC0E2E0F0E0EC0F51
:1003D000FD1FE10FF11D8081803319F411501111BF
:1003E000F4CF77FE0EC044244394410E812F90E059
:1003F000C816D9062CF41C1904C04424439401C027
:1004000010E077FE07C01C141D043CF496012F5F1A
:100410003F4F05C025E030E002C021E030E066201B
:1004200011F02F5F3F4F112331F0412F50E04F5F0C
:100430005F4F240F351F452D50E02417350714F466
:10044000521A01C0512C872D897049F4552039F07A
:10045000B70180E290E00E94640A5A94F7CF6620C8
:1004600029F0B701862D90E00E94640A73FC09C050
:10047000552039F0B70180E390E00E94640A5A9455
:10048000F7CF77FE5FC09C2D8D2DD7FE02C090E088
:1004900080E0692E782E40E050E0C6018419910971
:1004A0009D878C87960126193709280D391D812FC4
:1004B00090E0EE27FF27E81BF90BFF87EE87FFEFA1
:1004C0006F167F0669F4B7018EE290E02B8B3A8BB2
:1004D000488B598B0E94640A598948893A892B892B
:1004E000C614D70454F06C857D85661577052CF409
:1004F000F901E40FF51F818101C080E371E0671A03
:1005000071084F5F5F4FEE85FF856E167F066CF0BA
:10051000B70190E02B8B3A8B488B598B0E94640A71
:100520002B893A8948895989CACF6C147D0439F4DA
:100530009A81963318F4953311F404FF81E3B701DF
:1005400090E04BC08A81813309F00F7EB70190E0C3
:100550000E94640A111105C074FE18C085E490E081
:1005600017C0B7018EE290E00E94640A82E0662420
:100570006394680EF401E80FF11D8081B70190E0EB
:100580000E94640A115041F3862DF1CF85E690E078
:10059000B7010E94640AD7FC05C0C114D10439F424
:1005A00004FF05C0D194C194D1088DE201C08BE253
:1005B000B70190E00E94640A80E36AE0C616D104A5
:1005C0002CF08F5FFAE0CF1AD108F7CFB70190E097
:1005D0000E94640AB701C601C0960E94640A41C124
:1005E000833631F0833779F0833509F058C021C064
:1005F000560172E0A70EB11CF6018081898301E0EB
:1006000010E0640114C05601F2E0AF0EB11CF60117
:10061000C080D18026FF03C0612F70E002C06FEF61
:100620007FEFC6012B8B0E942C0A8C012B892F7720
:1006300015C05601F2E0AF0EB11CF601C080D180AA
:1006400026FF03C0612F70E002C06FEF7FEFC6018D
:100650002B8B0E94080A8C012B892068722E23FDA7
:100660001AC0852D90E008171907A8F4B70180E299
:1006700090E00E94640A5A94F4CFF60177FC8591C9
:1006800077FE81916F01B70190E00E94640A5110DA
:100690005A94015011090115110579F7E2C0843609
:1006A00011F0893651F5560127FF09C0F4E0AF0E6D
:1006B000B11CF60160817181828193810AC0F2E0F0
:1006C000AF0EB11CF60160817181882777FD80959E
:1006D000982F022F0F7697FF08C090958095709500
:1006E00061957F4F8F4F9F4F00682AE030E0A40153
:1006F0000E94AA0AC82EC8183EC0022F853721F4CE
:100700000F7E2AE030E01DC0097F8F3691F018F48B
:10071000883559F0B0C0803719F0883711F0ABC078
:10072000006104FF09C0046007C024FF08C0066020
:1007300006C028E030E005C020E130E002C020E142
:1007400032E0560107FF09C0F4E0AF0EB11CF6011C
:10075000608171818281938108C0F2E0AF0EB11C8B
:10076000F6016081718180E090E0A4010E94AA0AF4
:10077000C82EC8180F7706FF0BC0202F2E7FC1167A
:1007800050F404FF0AC002FD08C0202F2E7E05C0D1
:10079000DC2C202F03C0DC2C01C0D12E24FF0DC087
:1007A000FE01EC0DF11D8081803311F4297E09C01A
:1007B00022FF06C0D394D39404C0822F867809F018
:1007C000D39423FD13C020FF06C01C2DD51418F4AC
:1007D000150D1D19D52CD51468F4B70180E290E0F1
:1007E0002B8B0E94640AD3942B89F5CFD51410F477
:1007F0005D1801C0512C24FF12C0B70180E390E0C6
:100800002B8B0E94640A2B8922FF17C021FF03C093
:1008100088E590E002C088E790E0B7010CC0822F25
:10082000867859F021FD02C080E201C08BE227FDED
:100830008DE2B70190E00E94640AC11638F4B70156
:1008400080E390E00E94640A1150F7CFCA94F4014B
:10085000EC0DF11D8081B70190E00E94640AC11087
:10086000F5CF552009F4C2CCB70180E290E00E9498
:10087000640A5A94F6CFF7018681978102C08FEF00
:100880009FEF6396E2E10C946D07DA98DB9A2BB345
:10089000982F907F2F70922B9BBB34E03A95F1F705
:1008A000DB98E4E1F1E03197F1F70000DB9A2BB33C
:1008B000F0E18F9FC00111242F70282B2BBB34E057
:1008C0003A95F1F7DB9884E191E00197F1F70000A8
:1008D000089581E00E94450489E995E10197F1F7C7
:1008E00000C008958FEF8ABB1BBA2FEF8FEA91E00B
:1008F000215080409040E1F700C00000DA9893E07A
:10090000DB9A8BB38F7080638BBBE4E0EA95F1F7E1
:10091000DB98EFEFF5E33197F1F700C0000091505D
:1009200079F7DB9A8BB38F7080628BBBF4E0FA951A
:10093000F1F7DB9884E191E00197F1F7000088E29C
:100940000E9445048CE00E94450486E00E94450414
:100950000C946904DA9ADB9A2BB3982F907F2F704E
:10096000922B9BBB34E03A95F1F7DB98E4E1F1E0A0
:100970003197F1F70000DB9A2BB3F0E18F9FC001B4
:1009800011242F70282B2BBB34E03A95F1F7DB981C
:1009900084E191E00197F1F700000895605890E438
:1009A000899F600D1124862F0C944504CF93DF930B
:1009B0001F92CDB7DEB749830E94CE044981842FB0
:1009C0000F90DF91CF910C94AA04CF93DF93FC0199
:1009D0008491EF012196882321F00E94AA04FE0150
:1009E000F7CFDF91CF91089520E030E02817390745
:1009F0004CF4ECECFAE03197F1F700C000002F5F07
:100A00003F4FF4CF089590E00E94AA0480E090E068
:100A1000089520E030E048EC52E40E94AF080E94C4
:100A2000F007CB0108951F920F920FB60F92112479
:100A30002F933F934F935F936F937F938F939F93E6
:100A4000AF93BF93EF93FF93C49881E00E944C074C
:100A500080EA0E944C078FB18F7090E0982F882712
:100A600090936F0080936E0080E00E944C0780910D
:100A70006E0090916F002FB1822B90936F00809346
:100A80006E00C49AFF91EF91BF91AF919F918F91AA
:100A90007F916F915F914F913F912F910F900FBE7A
:100AA0000F901F901895CF93DF93CDB7DEB7A49723
:100AB0000FB6F894DEBF0FBECDBF8FEF84BBB89AE0
:100AC000C09A85E00E94C706789480E690E09093F3
:100AD000BB008093BA000E9472040E9445078EB545
:100AE0008B608EBD80E893E49BBD8ABD89B7806131
:100AF00089BF80E790E00E94D20688E085BB8EE146
:100B000090E00E94F40484E085BB8EE190E00E94B6
:100B1000F40482E085BB8EE190E00E94F40481E061
:100B200085BB8EE190E00E94F4047EE1872E912C3B
:100B3000EEE1AE2EB12C0EE110E0412C512CF7E786
:100B4000EF2EF0E0FF2EA2E02A2E3324339440E271
:100B500050E060E070E080E090E00E94D6045F9298
:100B60004F92FF92EF920E94960A40E250E067E0B7
:100B700070E080E090E00E94D6049F928F92FF92F6
:100B8000EF920E94960A40E250E067E070E081E058
:100B900090E00E94D604BF92AF92FF92EF920E9423
:100BA000960A60916E0070916F0080E090E00E9464
:100BB000210820E030E040EA50E40E94AF0820E045
:100BC00030EF4FE755E40E94880720E030E048EC22
:100BD00052E40E94AF080E94F00769A37AA38BA396
:100BE0009CA389A09AA0809193000FB6F894DEBFD1
:100BF0000FBECDBF813009F0BDC044E050E06AE7D0
:100C000070E084E990E00E941E0A892B49F489E98A
:100C100090E00E9412095C01CC24C394D12C02C044
:100C2000C12CD12C44E050E06FE770E084E990E003
:100C30000E941E0A892B99F44AE0BE016F5F7F4F24
:100C400089A19AA10E94370ACE0101960E94D2067C
:100C500089E890E00E94D206CC24C394D12C42E0D3
:100C600050E064E870E084E990E00E941E0A892B5D
:100C700009F05BC080919700883509F04AC088E987
:100C800090E00E9412096C01480E591E66E470E063
:100C900084E990E00E94130A009721F001960E94D7
:100CA00012098C01D7FC03C0612C712C19C038E0EB
:100CB00035BBC8010E94F40484E085BBC8010E94D2
:100CC000F40425BAC8010E94F40435BAC8010E9490
:100CD000F404EFEFCE1ADE0AC114D10441F719C0B3
:100CE0006C147D04B1F035BAC8010E94F40425BA31
:100CF000C8010E94F404F4E0F5BBC8010E94F404AA
:100D000028E025BBC8010E94F4043FEF631A730A70
:100D1000E7CF80919700863429F488E990E00E941B
:100D200012098C01CC24C394D12C0E94690460E088
:100D300070E081E090E00E94CE0434E9632E30E060
:100D4000732E7F926F920E94960A109293001092D7
:100D5000B700F30120E211922A95E9F70F900F9066
:100D6000CA94CD2819F487E890E002C08BE890E09F
:100D70000E94D206C50101968815990534F00297A4
:100D80008816990614F0C098E2CEC09AE0CE10BC46
:100D900089B986E880BD8AB1886D8AB908955D9B5E
:100DA000FECF0895CF93DF9300D0CDB7DEB720916B
:100DB00092002111FCCF89839A830E94CF0621E003
:100DC000209392008981E82F9A81F92F81918CB923
:100DD000F093B500E093B4000F900F90DF91CF91A6
:100DE00008951F920F920FB60F9211248F93EF93D5
:100DF000FF938CB18093B6008091B7008F3110F0D3
:100E00001092B700E091B700F0E08091B600EC5688
:100E1000FF4F80838091B7008F5F8093B7008091F0
:100E2000B6008A3021F481E08093930002C01092D2
:100E30009300FF91EF918F910F900FBE0F901F9035
:100E400018951F920F920FB60F9211248F939F93B4
:100E5000EF93FF93E091B400F091B5008081882377
:100E600049F0CF0101969093B5008093B400808142
:100E70008CB902C010929200FF91EF919F918F91D7
:100E80000F900FBE0F901F9018958DB181658DB991
:100E900087B3806B87BB08958FB9779BFECF8FB1E7
:100EA00008952F923F924F925F926F927F928F920E
:100EB0009F92AF92BF92CF92DF92EF92FF920F93E9
:100EC0001F93CF93DF93CDB7DEB7CA1BDB0B0FB6F3
:100ED000F894DEBF0FBECDBF09942A8839884888B0
:100EE0005F846E847D848C849B84AA84B984C88446
:100EF000DF80EE80FD800C811B81AA81B981CE0F3D
:100F0000D11D0FB6F894DEBF0FBECDBFED01089521
:100F10000CD0EBC0E3D040F0DAD030F021F45F3FEA
:100F200019F0CCC0511115C1CFC0F0D098F399235E
:100F3000C9F35523B1F3951B550BBB27AA2762179D
:100F40007307840738F09F5F5F4F220F331F441FE2
:100F5000AA1FA9F333D00E2E3AF0E0E830D091501A
:100F60005040E695001CCAF729D0FE2F27D0660F07
:100F7000771F881FBB1F261737074807AB07B0E846
:100F800009F0BB0B802DBF01FF2793585F4F2AF05C
:100F90009E3F510568F092C0DCC05F3FECF3983E85
:100FA000DCF3869577956795B795F7959F5FC9F7B9
:100FB000880F911D9695879597F90895E1E0660F42
:100FC000771F881FBB1F621773078407BA0720F0BB
:100FD000621B730B840BBA0BEE1F88F7E095089524
:100FE00004D06894B111B5C0089598D088F09F5787
:100FF00090F0B92F9927B751A0F0D1F0660F771F65
:10100000881F991F1AF0BA95C9F712C0B13081F044
:101010009FD0B1E008959CC0672F782F8827B85FD4
:1010200039F0B93FCCF3869577956795B395D9F7A5
:101030003EF490958095709561957F4F8F4F9F4FAF
:101040000895E89409C097FB3EF4909580957095BB
:1010500061957F4F8F4F9F4F9923A9F0F92F96E904
:10106000BB279395F695879577956795B795F11179
:10107000F8CFFAF4BB0F11F460FF1BC06F5F7F4F16
:101080008F4F9F4F16C0882311F096E911C0772328
:1010900021F09EE8872F762F05C0662371F096E831
:1010A000862F70E060E02AF09A95660F771F881F00
:1010B000DAF7880F9695879597F9089597F99F67BE
:1010C00080E870E060E008959FEF80EC08950024D0
:1010D0000A941616170618060906089500240A949D
:1010E00012161306140605060895092E0394000C23
:1010F00011F4882352F0BB0F40F4BF2B11F460FFB2
:1011000004C06F5F7F4F8F4F9F4F089557FD9058DA
:10111000440F551F59F05F3F71F04795880F97FBBB
:10112000991F61F09F3F79F0879508951216130675
:101130001406551FF2CF4695F1DF08C016161706A4
:101140001806991FF1CF86957105610508940895D9
:10115000E894BB2766277727CB0197F908950BD032
:10116000C4CFB5DF28F0BADF18F0952309F0A6CF79
:10117000ABCF1124EECFCADFA0F3959FD1F3950F2B
:1011800050E0551F629FF001729FBB27F00DB11D0B
:10119000639FAA27F00DB11DAA1F649F6627B00D9B
:1011A000A11D661F829F2227B00DA11D621F739F84
:1011B000B00DA11D621F839FA00D611D221F749F92
:1011C0003327A00D611D231F849F600D211D822FD9
:1011D000762F6A2F11249F5750408AF0E1F0882320
:1011E0004AF0EE0FFF1FBB1F661F771F881F91502D
:1011F0005040A9F79E3F510570F060CFAACF5F3FE6
:10120000ECF3983EDCF3869577956795B795F7955F
:10121000E7959F5FC1F7FE2B880F911D96958795E7
:1012200097F90895FC0188279927E89421912032A5
:10123000E9F3293010F02E30C8F32B3241F02D3273
:1012400039F4689404C00E94420A820F911D2191D2
:1012500020532A30C0F31EF4909581959F4F089536
:10126000283008F027E03327DA01990F311D87FD78
:10127000916000966105710539F432602E5F3D93EF
:1012800030E32A95E1F708959F3F30F080387105EB
:10129000610509F03C5F3C5F3D93913008F0806848
:1012A000911DDF93CF931F930F93FF92EF92192F0E
:1012B000987F9695E92F96959695E90FFF27EA5422
:1012C000FF4F99273327EE24FF24A701E70105905C
:1012D0000894079428F4360FE71EF81E491F511D85
:1012E000660F771F881F991F0694A1F70590079432
:1012F00028F4E70EF81E491F561FC11D770F881FDF
:10130000991F661F0694A1F70590079428F4F80E1C
:10131000491F561FC71FD11D880F991F661F771FB2
:101320000694A1F70590079420F4490F561FC71F94
:10133000D81F990F661F771F881F0694A9F78491FD
:101340001095177041F0D695C79557954795F79426
:10135000E7941A95C1F7ECE5F0E0689415901591C3
:1013600035916591959105907FE27395E118F10AA9
:10137000430B560BC90BD009C0F7E10CF11E431FFC
:10138000561FC91FD01D7EF4703311F48A95E6CF25
:10139000E894015030F0080F0AF40027021708F40F
:1013A000202F2395022F7A3328F079E37D932A9515
:1013B000E9F710C07D932A9589F60694979567956D
:1013C000379517951794E118F10A430B560BC90B83
:1013D000D00998F023957E9173957A3308F070E3E5
:1013E0007C932013B8F77E9170617D9330F08395E4
:1013F00071E37D9370E32A95E1F71124EF90FF905C
:101400000F911F91CF91DF91992787FD90950895B6
:10141000FC010590615070400110D8F780959095BF
:101420008E0F9F1F0895FC018191861721F088235C
:10143000D9F7992708953197CF010895FB01DC0171
:101440004150504030F08D910190801919F40020E6
:10145000B9F7881B990B0895FC0161507040019009
:101460000110D8F7809590958E0F9F1F0895BB2788
:101470004A3031F4992322F4BDE2909581959F4F33
:101480000C944B0A7AE0979F902D879F802D910DA9
:1014900011240895BB27FB015527AA27880F991F00
:1014A000AA1FA41710F0A41B83955051B9F7A05D93
:1014B000AA3308F0A95DA193009779F7B111B19310
:1014C0001192CB010C94080B0F931F93CF93DF93D2
:1014D000182F092FEB018B8181FD03C08FEF9FEF48
:1014E00020C082FF10C04E815F812C813D81421758
:1014F00053077CF4E881F9819F012F5F3F4F3983C7
:101500002883108306C0E885F985812F0995892BEA
:1015100029F72E813F812F5F3F4F3F832E83812FFD
:10152000902FDF91CF911F910F910895A0E0B0E02F
:10153000ECE9FAE00C946107FE0135966191719136
:10154000AF018091BA009091BB000E94CA00E2E016
:101550000C947D07FA01AA27283051F1203181F13E
:10156000E8946F936E7F6E5F7F4F8F4F9F4FAF4FAB
:10157000B1E03ED0B4E03CD0670F781F891F9A1FBE
:10158000A11D680F791F8A1F911DA11D6A0F711D72
:10159000811D911DA11D20D009F468943F912AE07E
:1015A000269F11243019305D3193DEF6CF01089566
:1015B000462F4770405D4193B3E00FD0C9F7F6CF97
:1015C000462F4F70405D4A3318F0495D31FD40525F
:1015D000419302D0A9F7EACFB4E0A69597958795F5
:1015E00077956795BA95C9F70097610571050895D4
:1015F0009B01AC010A2E0694579547953795279580
:10160000BA95C9F7620F731F841F951FA01D089517
:10161000DC01FC01672F71917723E1F7329704C059
:101620007C916D9370836291AE17BF07C8F30895E4
:04163000F894FFCF5C
:101634000000000200000000030500000000140088
:1016440068656C6C6F0A002564004D313034004DC0
:10165400313035004731006F6B0A006572726F726A
:021664000A007A
:00000001FF
