:100000000C942A000C9447000C9447000C94470071
:100010000C9447000C9447000C9447000C947F000C
:100020000C9447000C9447000C94A3000C944700D8
:100030000C9447000C9447000C9447000C94470024
:100040000C9447000C9447000C9447000C94470014
:100050000C94470011241FBECFE5D8E0DEBFCDBF12
:1000600010E0A0E6B0E0ECE3F2E002C005900D92F3
:10007000AA36B107D9F720E0AAE6B0E001C01D9288
:10008000A537B207E1F70E94E6000C941C010C941E
:1000900000002AE030E0B9010E940801FC01E05AAA
:1000A000FF4F808190E09093700080936F00CB01B0
:1000B000B9010E940801FC01E05AFF4F808190E0E5
:1000C0009093720080937100CB01B9010E940801E6
:1000D000FC01E05AFF4F808190E090937400809380
:1000E0007300CB01B9010E940801805A9F4FFC01A7
:1000F000808190E090936E0080936D0008951F9230
:100100000F920FB60F9211242F938F939F9380918C
:100110006B0090916C00019690936C0080936B0043
:1001200080916B0090916C008031974221F4109285
:100130006C0010926B009F918F912F910F900FBECA
:100140000F901F9018951F920F920FB60F921124C7
:100150002F938F939F9382B38F6082BB80916A00AD
:10016000813079F048F0823089F08330A1F48091B9
:100170006D0090916E000EC080916F0090917000A4
:1001800009C0809171009091720004C08091730049
:100190009091740085BB22B381E090E000906A00EA
:1001A00002C0880F991F0A94E2F78095822382BBD0
:1001B00080916A008F5F837080936A009F918F9116
:1001C0002F910F900FBE0F901F9018958FE081BB5D
:1001D00082BB8FEF84BB85BB83B78C6083BF86E512
:1001E00090E09BBD8ABD89B7826089BF8EB58B6068
:1001F0008EBD80E893E49BBD8ABD89B7806189BFCD
:10020000789480916B0090916C000E944900F9CF26
:10021000AA1BBB1B51E107C0AA1FBB1FA617B7072C
:1002200010F0A61BB70B881F991F5A95A9F7809548
:0C0230009095BC01CD010895F894FFCF1B
:0A023C00C0F9A4B0999282F88090F6
:00000001FF
