:100000000C94AB000C94C8000C94C8000C94C8006D
:100010000C94C8000C94C8000C94C8000C94C80040
:100020000C94C8000C94C8000C94C8000C94C80030
:100030000C94C8000C942B100C94C8000C945B100A
:100040000C94C8000C94C8000C94C8000C94C80010
:100050000C94C8006E616E00696E660000407A10F4
:10006000F35A00A0724E18090010A5D4E80000E869
:100070007648170000E40B54020000CA9A3B0000C7
:1000800000E1F505000080969800000040420F0056
:100090000000A08601000000102700000000E80317
:1000A000000000006400000000000A0000000000E2
:1000B0000100000000002C76D888DC674F0823DFA1
:1000C000C1DFAE59E1B1B796E5E3E453C63AE65174
:1000D000997696E8E6C28426EB898C9B62ED407C9B
:1000E0006FFCEFBC9C9F40F2BAA56FA5F490055A37
:1000F0002AF75C936B6CF9676DC11BFCE0E40D475C
:10010000FEF520E6B500D0ED902E0300943577057E
:100110000080841E080000204E0A000000C80C3336
:100120003333330F986E12831141EF8D2114893BC5
:10013000E65516CFFEE6DB18D1844B381BF77C1D45
:10014000901DA4BBE424203284725E228100C9F198
:1001500024ECA1E53D2711241FBECFE5D8E0DEBF8A
:10016000CDBF10E0A0E6B0E0E4EDF5E202C00590FE
:100170000D92A83BB107D9F720E0A8EBB0E001C091
:100180001D92A93EB207E1F70E9461050C94E812A6
:100190000C940000A3E1B0E0E0EDF0E00C94EE1070
:1001A0007C011B016A01FC0117821682838181FF99
:1001B00066C3BE016F5F7F4F4B01F7019381F10171
:1001C00093FD859193FF81911F01882309F453C307
:1001D000853239F493FD859193FF81911F0185321A
:1001E00039F4B70190E00E94221256016501E5CF73
:1001F00010E0512C20E02032A0F48B3269F030F472
:10020000803259F0833269F420612CC08D3239F08C
:10021000803339F4216026C02260246023C0286026
:1002200021C027FD27C030ED380F3A3078F426FF83
:1002300006C0FAE01F9F300D1124132F13C06AE08F
:10024000569E300D1124532E20620CC08E3221F4A4
:1002500026FD11C3206406C08C3611F4206802C04C
:10026000883641F4F10193FD859193FF81911F013F
:100270008111C1CF9BEB980F933018F42061805E01
:1002800006C09BE9980F933008F0AAC12F7E26FF85
:1002900016E02F73722E853621F4F22FF0647F2E34
:1002A00008C0863621F4622F6068762E02C01111D4
:1002B000115077FE07C01C3348F444244394410E88
:1002C00027E00BC0183030F4212F06C027E04CE3A4
:1002D000442E03C027E017E0412C560174E0A70E1E
:1002E000B11CF6016081718182819381042DA4018A
:1002F0000E9434116C01098100FF02C003FF06C097
:1003000071FC07C072FC08C0612C08C03DE2632E7E
:1003100005C02BE2622E02C090E2692E802F8C7005
:1003200099F1662011F084E001C083E0851510F09A
:10033000512C0BC0581A73FC08C0B70180E290E042
:100340000E9422125A94C9F7F3CF662029F0B70110
:10035000862D90E00E94221203FD03C008E510E004
:1003600002C004E510E0F72DF0717F2EF8018491B2
:10037000882309F476C271108052B70190E00E9480
:1003800022120F5F1F4FF2CF77FE0FC04C0C04FFFD
:1003900004C08A81813309F44A94141474F5F8E096
:1003A000F41578F588E0482E2CC076FC2AC0812F01
:1003B00090E08C159D059CF06CEFC6166FEFD6068D
:1003C00074F0772D7068772E0AC0E2E0F0E0EC0F51
:1003D000FD1FE10FF11D8081803319F411501111BF
:1003E000F4CF77FE0EC044244394410E812F90E059
:1003F000C816D9062CF41C1904C04424439401C027
:1004000010E077FE07C01C141D043CF496012F5F1A
:100410003F4F05C025E030E002C021E030E066201B
:1004200011F02F5F3F4F112331F0412F50E04F5F0C
:100430005F4F240F351F452D50E02417350714F466
:10044000521A01C0512C872D897049F4552039F07A
:10045000B70180E290E00E9422125A94F7CF662002
:1004600029F0B701862D90E00E94221273FC09C08A
:10047000552039F0B70180E390E00E9422125A948F
:10048000F7CF77FE5FC09C2D8D2DD7FE02C090E088
:1004900080E0692E782E40E050E0C6018419910971
:1004A0009D878C87960126193709280D391D812FC4
:1004B00090E0EE27FF27E81BF90BFF87EE87FFEFA1
:1004C0006F167F0669F4B7018EE290E02B8B3A8BB2
:1004D000488B598B0E942212598948893A892B8965
:1004E000C614D70454F06C857D85661577052CF409
:1004F000F901E40FF51F818101C080E371E0671A03
:1005000071084F5F5F4FEE85FF856E167F066CF0BA
:10051000B70190E02B8B3A8B488B598B0E942212AB
:100520002B893A8948895989CACF6C147D0439F4DA
:100530009A81963318F4953311F404FF81E3B701DF
:1005400090E04BC08A81813309F00F7EB70190E0C3
:100550000E942212111105C074FE18C085E490E0BB
:1005600017C0B7018EE290E00E94221282E066245A
:100570006394680EF401E80FF11D8081B70190E0EB
:100580000E942212115041F3862DF1CF85E690E0B2
:10059000B7010E942212D7FC05C0C114D10439F45E
:1005A00004FF05C0D194C194D1088DE201C08BE253
:1005B000B70190E00E94221280E36AE0C616D104DF
:1005C0002CF08F5FFAE0CF1AD108F7CFB70190E097
:1005D0000E942212B701C601C0960E94221241C198
:1005E000833631F0833779F0833509F058C021C064
:1005F000560172E0A70EB11CF6018081898301E0EB
:1006000010E0640114C05601F2E0AF0EB11CF60117
:10061000C080D18026FF03C0612F70E002C06FEF61
:100620007FEFC6012B8B0E9417128C012B892F772D
:1006300015C05601F2E0AF0EB11CF601C080D180AA
:1006400026FF03C0612F70E002C06FEF7FEFC6018D
:100650002B8B0E940C128C012B892068722E23FD9B
:100660001AC0852D90E008171907A8F4B70180E299
:1006700090E00E9422125A94F4CFF60177FC859103
:1006800077FE81916F01B70190E00E942212511014
:100690005A94015011090115110579F7E2C0843609
:1006A00011F0893651F5560127FF09C0F4E0AF0E6D
:1006B000B11CF60160817181828193810AC0F2E0F0
:1006C000AF0EB11CF60160817181882777FD80959E
:1006D000982F022F0F7697FF08C090958095709500
:1006E00061957F4F8F4F9F4F00682AE030E0A40153
:1006F0000E948A12C82EC8183EC0022F853721F4E6
:100700000F7E2AE030E01DC0097F8F3691F018F48B
:10071000883559F0B0C0803719F0883711F0ABC078
:10072000006104FF09C0046007C024FF08C0066020
:1007300006C028E030E005C020E130E002C020E142
:1007400032E0560107FF09C0F4E0AF0EB11CF6011C
:10075000608171818281938108C0F2E0AF0EB11C8B
:10076000F6016081718180E090E0A4010E948A120C
:10077000C82EC8180F7706FF0BC0202F2E7FC1167A
:1007800050F404FF0AC002FD08C0202F2E7E05C0D1
:10079000DC2C202F03C0DC2C01C0D12E24FF0DC087
:1007A000FE01EC0DF11D8081803311F4297E09C01A
:1007B00022FF06C0D394D39404C0822F867809F018
:1007C000D39423FD13C020FF06C01C2DD51418F4AC
:1007D000150D1D19D52CD51468F4B70180E290E0F1
:1007E0002B8B0E942212D3942B89F5CFD51410F4B1
:1007F0005D1801C0512C24FF12C0B70180E390E0C6
:100800002B8B0E9422122B8922FF17C021FF03C0CD
:1008100088E590E002C088E790E0B7010CC0822F25
:10082000867859F021FD02C080E201C08BE227FDED
:100830008DE2B70190E00E942212C11638F4B70190
:1008400080E390E00E9422121150F7CFCA94F40185
:10085000EC0DF11D8081B70190E00E942212C110C1
:10086000F5CF552009F4C2CCB70180E290E00E9498
:1008700022125A94F6CFF7018681978102C08FEF3A
:100880009FEF6396E2E10C940A11DA98DB9A2BB39E
:10089000982F907F2F70922B9BBB34E03A95F1F705
:1008A000DB98E4E1F1E03197F1F70000DB9A2BB33C
:1008B000F0E18F9FC00111242F70282B2BBB34E057
:1008C0003A95F1F7DB9884E191E00197F1F70000A8
:1008D000089581E00E94450489E995E10197F1F7C7
:1008E00000C008958FEF8ABB1BBA2FEF8FEA91E00B
:1008F000215080409040E1F700C00000DA9893E07A
:10090000DB9A8BB38F7080638BBBE4E0EA95F1F7E1
:10091000DB98EFEFF5E33197F1F700C0000091505D
:1009200079F7DB9A8BB38F7080628BBBF4E0FA951A
:10093000F1F7DB9884E191E00197F1F7000088E29C
:100940000E9445048CE00E94450486E00E94450414
:100950000C946904DA9ADB9A2BB3982F907F2F704E
:10096000922B9BBB34E03A95F1F7DB98E4E1F1E0A0
:100970003197F1F70000DB9A2BB3F0E18F9FC001B4
:1009800011242F70282B2BBB34E03A95F1F7DB981C
:1009900084E191E00197F1F700000895605890E438
:1009A000899F600D1124862F0C944504CF93DF930B
:1009B0001F92CDB7DEB749830E94CE044981842FB0
:1009C0000F90DF91CF910C94AA04CF93DF93FC0199
:1009D0008491EF012196882321F00E94AA04FE0150
:1009E000F7CFDF91CF910895BB9A8FE295E0019701
:1009F000F1F7BB98E1ECF0E03197F1F700C086B376
:100A0000EDE6F4E03197F1F700C088700895813089
:100A100051F4BB9A86E18A95F1F70000BB988CEE01
:100A20008A95F1F70895811109C0BB9A8DED8A95D9
:100A3000F1F70000BB9885E28A95F1F70895BB9A1B
:100A400086E18A95F1F70000BB9891E29A95F1F75B
:100A5000000086B39BEC9A95F1F788700895CF93C8
:100A6000DF93D82FC8E08D2F81700E940705D6959F
:100A7000C150C9F7DF91CF910895CF93DF93D8E0AC
:100A8000C0E0C6950E941F058111C068D150C9F70A
:100A90008C2FDF91CF91089520E030E0281739079F
:100AA0004CF4ECECFAE03197F1F700C000002F5F56
:100AB0003F4FF4CF089590E00E94AA0480E090E0B8
:100AC0000895CF93DF93CDB7DEB7CC54D1090FB6DD
:100AD000F894DEBF0FBECDBF2D961FAE1EAE2D9774
:100AE00011BA8FEF82BB0E94961085E00E94011020
:100AF000789480E790E00E940C1080E690E090935C
:100B0000E6008093E5000E947204CE0101960E94E7
:100B10006A0A8E01055D1F4F882309F11F930F9309
:100B200087E790E09F938F930E9454128AE790E0AA
:100B30000E94860B0E949A100F900F900F900F90BA
:100B4000E12CF12C91E7892E92E0992E26E9A22E34
:100B500020E0B22E30EA432E30E0532E17C088E852
:100B600090E00E94860B8111D9CFAE01455B5F4FAB
:100B700060E170E0C8010E94E20B8111F6CF2D9672
:100B80008EAD9FAD2D97409781F7C8CF0E94AB10D7
:100B90009C012F703327289D3001299D700C389DB2
:100BA000700C11246C0184E0D594C7948A95E1F708
:100BB0007F926F92DF92CF92FF92EF92BF92AF92AD
:100BC0001F930F930E9468128FEFE81AF80A60E0F3
:100BD00070E081E090E00E94CE047F926F92DF92FD
:100BE000CF925F924F920E945412ECECFAE0319750
:100BF000F1F700C000000FB6F894DEBF0FBECDBF06
:100C00008099C4CF60E070E081E090E00E94CE0463
:100C10008EEA90E09F938F930E945412F801019006
:100C20000020E9F7BF0161507109601B710BAE0133
:100C3000455B5F4FC8010E94B40CAE01455B5F4F3E
:100C400060E070E080E090E00E94B40C80E090E012
:100C50000E946A0A0F900F90FFCFFF920F931F938D
:100C6000CF93DF93C82FD42F152F062FF72E87FF92
:100C700009C040E050E0BA0187E70E942D068230AB
:100C800040F5CF77C29A0E948B10C2980E948B10B9
:100C90008C2F0E9491108F2D0E949110802F0E9406
:100CA0009110812F0E9491108D2F0E949110C034BD
:100CB00021F0C83421F081E003C085E901C087E854
:100CC0000E949110CAE00E948B1087FF02C0C150A1
:100CD000D1F7DF91CF911F910F91FF900895CF929F
:100CE000DF92EF92FF920F931F93CF93DF93EC016C
:100CF00079018091BA0083FD07C029E0440F551F98
:100D0000661F771F2A95D1F781E50E942D0688235B
:100D100011F0C1E03DC090E4C92E9CE9D92E0E949B
:100D20008B108F3F39F481E0C81AD108C114D10467
:100D3000B1F7EFCF8E3F69F782E0C82EDC2CC01AE6
:100D4000D10ACE18DF08E114F10419F4209739F420
:100D50000FC00E948B1081E0E81AF108F4CF0E94C6
:100D60008B1089930150110901151105C1F707C0B6
:100D70000E948B100150110901151105C9F70E943D
:100D80008B1081E0C81AD108C114D104C1F7C0E0AA
:100D9000C29A0E948B108C2FDF91CF911F910F91DF
:100DA000FF90EF90DF90CF9008950F931F93CF9314
:100DB000DF930097E1F08A01EC01080F191F0C176F
:100DC0001D0709F45EC08091B8009091B900892B8D
:100DD00009F457C089910E9491108091B8009091B8
:100DE000B90001979093B9008093B800E8CF4115FE
:100DF000510561057105E9F08091BA0083FD07C0D6
:100E000039E0440F551F661F771F3A95D1F788E5E3
:100E10000E942D06811137C08FEF0E9491108EEF36
:100E20000E94911080E092E09093B9008093B80006
:100E300028C0C091B800D091B900CE3F8FEFD8073D
:100E400029F080E00E9491102197F7CF0E948B102B
:100E50008F71853011F011E010C0C8E8D3E10E9415
:100E60008B108F3F31F02097B1F30E9485102197AE
:100E7000F6CF11E0CD2B09F010E0C29A0E948B1042
:100E800003C010E001C011E0812FDF91CF911F91CD
:100E90000F910895EF92FF920F931F93CF93DF93DB
:100EA00000D000D0CDB7DEB78091BA00882349F0DA
:100EB000C29907C040E050E0BA0180E090E00E9493
:100EC000D5060E947F10C29A2FEF8FED90E121503E
:100ED00080409040E1F700C000001AE00E948B10B3
:100EE0001150E1F740E050E0BA0180E40E942D0685
:100EF000813009F05FC04AEA51E060E070E088E4C8
:100F00000E942D06813059F57E01E5E0EE0EF11CC0
:100F10008E010F5F1F4F0E948B10F80181938F018C
:100F2000EE15FF05C1F78B81813009F043C08C813C
:100F30008A3A09F03FC000E117E240E050E060E08B
:100F400070E489EE0E942D06882309F43EC00E94B9
:100F50008510015011090115110579F72BC040E0EA
:100F600050E0BA0189EE0E942D06823028F462E03A
:100F7000F62E79EEE72E04C0FF24F39451E4E52E1B
:100F800000E117E240E050E0BA018E2D0E942D06EC
:100F9000882341F00E9485100150110901151105A7
:100FA00089F708C040E052E060E070E080E50E9410
:100FB0002D068111F12CF092BA00C29A0E948B107A
:100FC00081E0FF20F1F080E01CC040E050E0BA0179
:100FD0008AE70E942D068111EDCF8E010F5F1F4F12
:100FE0000E948B10F80181938F01EE15FF05C1F768
:100FF000898186FF03C0ECE0FE2EDDCF44E0F42EB5
:10100000DACF0F900F900F900F90DF91CF911F913B
:101010000F91FF90EF9008950F931F939B01AC01E8
:10102000E091BB00F091BC00225031094109510907
:1010300086819781A085B1850297A109B1092817FA
:1010400039074A075B0768F4A281B0E00E94E31009
:101050000289138924893589600F711F821F931FAC
:1010600003C060E070E0CB011F910F9108950F93D2
:101070001F93CF93DF93EC01E091BB00F091BC0094
:10108000198218826C817D818E819F81613071050A
:101090008105910559F106811781208531856017F9
:1010A00071078207930710F5611571058105910598
:1010B00039F42081233021F46685778580899189F0
:1010C000688779878A879B876115710581059105F6
:1010D00019F00E940C0804C0668577858089918983
:1010E0006C877D878E879F8780E001C081E0DF91DC
:1010F000CF911F910F9108950F931F93CF93DF937B
:1011000000D000D0CDB7DEB7E091BB00F091BC00BD
:10111000623071058105910508F453C0068117817D
:1011200020853185601771078207930708F049C051
:101130002081223019F02330F1F043C09B01332786
:10114000220F331F472F582F692F772782859385CA
:10115000A485B585480F591F6A1F7B1F02E010E068
:10116000CE0101960E946F0681112BC069817A81A0
:1011700080E090E02AC09B012F773327220F331F96
:10118000220F331FAB01BC01A7E0769567955795F9
:101190004795AA95D1F782859385A485B585480F93
:1011A000591F6A1F7B1F04E010E0CE0101960E94C8
:1011B0006F06811106C069817A818B819C819F7045
:1011C00004C061E070E080E090E00F900F900F901D
:1011D0000F90DF91CF911F910F910895CF92DF92E1
:1011E000EF92FF920F931F93CF93DF93EC01E09068
:1011F000BB00F090BC00088119810F5F1F4F0115E3
:10120000110511F483E054C08C859D85AE85BF85A2
:101210000097A105B105B1F398012F703327232B57
:1012200009F041C00196A11DB11D8C879D87AE8735
:10123000BF87688579858A859B85F701611571056A
:101240008105910531F48481958108171907D0F63D
:101250002AC0228130E021503109A801E4E05695EE
:101260004795EA95E1F724233523232BE1F40E94E7
:101270007C086230710581059105C8F0F701C680D0
:10128000D780E084F1846C157D058E059F0508F0FC
:10129000B9CF688779878A879B870E940C086C87FB
:1012A0007D878E879F871983088380E001C081E056
:1012B000DF91CF911F910F91FF90EF90DF90CF9032
:1012C0000895CF92DF92EF92FF920F931F93CF93E7
:1012D000DF93EC016A017B0102E010E02EEF31E0C8
:1012E0000E946F06811127C08881998185359A4AAD
:1012F00021F526E330E0B701A601CE010E946F067A
:10130000811105C08881998186349144C1F002E041
:1013100010E022E530E0B701A601CE010E946F0681
:10132000811107C081E0288139812634314441F49C
:1013300006C081E005C083E003C082E001C080E018
:10134000DF91CF911F910F91FF90EF90DF90CF90A1
:101350000895BF92CF92DF92EF92FF920F931F9367
:10136000CF93DF93EC017B016A01FA0180814F5F2B
:101370005F4F8032C9F38F3209F46A011C821D82EB
:101380001E821F82F6018081813230F4CE010E94DC
:101390003708F701108294C010E2B12EEA81FB8178
:1013A000DF01CF010B96A817B90711F0BD92FBCF53
:1013B00090E080E028E031E0380FD601A80FB11DA1
:1013C0008C91813298F08F3289F08E3209F456C0B8
:1013D000921760F44FE9480F4A3108F48052DF0158
:1013E000A90FB11D8C939F5F832FE5CFC30ED11C36
:1013F00091E0813208F090E09387CE010E94370897
:1014000081112FC0288139812F703327B5E0220F39
:10141000331FBA95E1F74C855D856E857F8500E2C7
:1014200010E0C7010E946F06811124C0F70180817E
:101430008823C9F0438543FD10C00A811B81C70181
:10144000D8019801255F3F4FA217B307E9F0FC01CF
:101450006191CF015D916517B9F3CE010E94EE084D
:10146000CFCF833069F5EA81FB818385882321F022
:1014700083E026C081E024C084E022C0283009F047
:10148000B5CF98E02BE0B0CFF8018385811117C06C
:1014900044FFF2CFF7014489558960E070E0BA015A
:1014A00055274427828D938DA0E0B0E0482B592B1F
:1014B0006A2B7B2B4C835D836E837F836FCF80E0B1
:1014C000DF91CF911F910F91FF90EF90DF90CF9020
:1014D000BF9008954F925F926F927F928F929F92EA
:1014E000AF92BF92CF92DF92EF92FF920F931F9332
:1014F000CF93DF93CDB7DEB7A8970FB6F894DEBFD2
:101500000FBECDBF5C011092BC001092BB000097D3
:1015100009F4E2C00E944A0780FDE0C040E050E0CC
:10152000BA01CE0101960E9461098130F9F400E10F
:1015300010E02EEB31E040E050E0BA01CE01019620
:101540000E946F06882311F081E0C9C08D8181114E
:1015500002C087E0C4C049845A846B847C84B30190
:10156000A201CE0101960E94610903C0412C512CB9
:101570003201833049F38111ECCF04E210E02DE019
:1015800030E0B301A201CE0101960E946F068111E5
:10159000DBCF2A853B8540E050E021153105410530
:1015A000510521F4288D398D4A8D5B8DAC81B0E0D9
:1015B0000E94E3106B017C018A819B81AC0160E099
:1015C00070E0440E551E661E771ED5011A964D9288
:1015D0005D926D927C921D97E9811296EC93129721
:1015E0002D813E8115963C932E9314978F8198857B
:1015F000A0E0B0E00097A105B10521F48C899D8998
:10160000AE89BF89490104E0969487940A95E1F771
:10161000840120E030E00DA31EA32FA338A78C0186
:101620009D01041B150B260B370BC901B8016C1962
:101630007D098E099F090DA11EA12FA138A5601B50
:10164000710B820B930B2E2F30E040E050E00E9494
:10165000C1102E5F3F4F4F4F5F4FD50116962D9310
:101660003D934D935C931997273FBFE03B0741059E
:10167000510508F46ECF273F3F4F4105510510F447
:1016800082E001C083E0D5018C93833029F488A1E6
:1016900099A1AAA1BBA106C0D701C601840D951DC1
:1016A000A61DB71DF50186879787A08BB18B0DA16D
:1016B0001EA12FA138A5400E511E621E731E4C0C98
:1016C0005D1C6E1C7F1C428A538A648A758A118253
:1016D000B092BC00A092BB0080E001C082E0A8965E
:1016E0000FB6F894DEBF0FBECDBFDF91CF911F9133
:1016F0000F91FF90EF90DF90CF90BF90AF909F90B1
:101700008F907F906F905F904F9008950F931F93ED
:10171000CF93DF93CDB7DEB7EC970FB6F894DEBF6B
:101720000FBECDBF0091BB001091BC00011511058B
:10173000D9F1F80111829E012F5C3F4F3CA32BA3EE
:10174000AC01BE016F5F7F4FCE0181960E94A90957
:1017500081112DC08981882349F18C8584FD26C0A3
:101760008D899E89A0E0B0E0DC01992788274B8D08
:101770005C8D60E070E0842B952BA62BB72BF801D5
:10178000868F978FA0A3B1A38D8D9E8DAF8DB8A1AD
:10179000828F938FA48FB58F168A178A108E118E21
:1017A00081E0818380E003C086E001C083E0EC96A5
:1017B0000FB6F894DEBF0FBECDBFDF91CF911F9162
:1017C0000F9108954F925F926F927F928F929F92A6
:1017D000AF92BF92CF92DF92EF92FF920F931F933F
:1017E000CF93DF934C017B015A01C091BB00D09194
:1017F000BC00FA0111821082209709F4A1C08981EE
:1018000080FFA0C08A8D9B8DAC8DBD8D4E895F8978
:10181000688D798D841B950BA60BB70BA70160E033
:1018200070E084179507A607B70708F47C01340118
:10183000412C42E0542EE114F10409F47CC08E895D
:101840009F89A88DB98DAC01BD015170662777279E
:10185000452B462B472BE1F5DA80DA94AC01BD012C
:1018600039E076956795579547953A95D1F7D42203
:10187000C9F4892B8A2B8B2B29F46E8D7F8D88A13F
:1018800099A106C06AA17BA18CA19DA10E947C08A0
:10189000623071058105910508F44FC06AA37BA3EE
:1018A0008CA39DA36AA17BA18CA19DA10E940C0881
:1018B000611571058105910509F43FC0DC01CB017B
:1018C0008D0D911DA11DB11D8EA39FA3A8A7B9A722
:1018D0002E893F893170C201821B930B67018E15DF
:1018E0009F0508F46C014EA15FA168A579A581143C
:1018F000910419F480E090E001C0C30186010E94C8
:101900006F0681111AC08E899F89A88DB98D8C0DA3
:101910009D1DA11DB11D8E8B9F8BA88FB98F6C0C47
:101920007D1CEC18FD08F501808191818C0D9D1DB9
:101930009183808380CF80E006C0198281E003C05C
:1019400086E001C085E0DF91CF911F910F91FF905C
:10195000EF90DF90CF90BF90AF909F908F907F904F
:101960006F905F904F9008954F925F926F927F9229
:101970008F929F92AF92BF92CF92DF92EF92FF929F
:101980000F931F93CF93DF936C018B015A01C0918A
:10199000BB00D091BC00FA0111821082209709F49B
:1019A000CFC0898180FFCEC080746115710581F43C
:1019B000811104C089818F7B8983BDC040E050E0E4
:1019C000BA0180E090E00E94D5068111B6C0F2CF46
:1019D00081110AC08E899F89A88DB98D88279E7F25
:1019E0008E8B9F8BA88FB98F8A8D9B8DAC8DBD8D73
:1019F0004E895F89688D798D841B950BA60BB70B7B
:101A0000A80160E070E084179507A607B70708F4FF
:101A10008C01812CF2E09F2E0115110509F48BC079
:101A20008E899F89A88DB98D9C013170232B09F077
:101A300045C0FA80FA94AC01BD01E9E0769567955E
:101A400057954795EA95D1F7F422C9F4892B8A2B4B
:101A50008B2B29F46E8D7F8D88A199A106C06AA178
:101A60007BA18CA19DA10E947C086230710581053B
:101A7000910508F462C06AA37BA38CA39DA36AA10D
:101A80007BA18CA19DA10E940C08611571058105A7
:101A9000910509F452C0AB01BC014F0D511D611DF0
:101AA000711D4EA35FA368A779A780E090E00E9414
:101AB000D506811142C08981806489838E899F897E
:101AC00091709401281B390B78012017310708F415
:101AD00079012701612C712CB301A201C6010E947A
:101AE000D50681112AC08E899F89A88DB98D840D54
:101AF000951DA61DB71D8E8B9F8BA88FB98FCE0C01
:101B0000DF1C0E191F09F501208131812E0D3F1DAB
:101B1000318320839170892B09F07ECF40E050E023
:101B2000BA0180E090E00E94D506811106C089814B
:101B30008F7B898371CF80E006C0198281E003C06A
:101B400086E001C085E0DF91CF911F910F91FF905A
:101B5000EF90DF90CF90BF90AF909F908F907F904D
:101B60006F905F904F9008952F923F924F925F92A7
:101B70006F927F928F929F92AF92BF92CF92DF929D
:101B8000EF92FF920F931F93CF93DF9300D000D07B
:101B9000CDB7DEB79B012090BB003090BC00211474
:101BA000310409F4E4C0D10111964C91119740FF22
:101BB000E0C05A964D915D916D917C915D97690160
:101BC0007C014C155D056E057F0510F46A017B01F3
:101BD000F10146885788608C718C168A178A108E9E
:101BE000118EC114D104E104F10409F4C4C082804F
:101BF000912CA12CB12CB9E0880C991CAA1CBB1CFF
:101C0000BA95D1F74114510461047104D9F1B1E0DE
:101C10004B1A510861087108C701B601615071097A
:101C200081099109A50194010E94C11029833A8379
:101C30004B835C83C301B201A50194010E94C110D2
:101C400089819A81AB81BC8182179307A407B5076C
:101C5000C8F088279927DC0188199909AA09BB09C6
:101C600084219521A621B721F101868B978BA08F26
:101C7000B18FC81AD90AEA0AFB0A62A173A184A12A
:101C800095A139C0D1015E966D917D918D919C9108
:101C90009197F10162A373A384A395A32CC00E9422
:101CA0007C08623071058105910508F45CC0D101A2
:101CB00016960D911D912D913C9119976017710702
:101CC0008207930708F04FC0F10162A373A384A3B6
:101CD00095A306891789208D318D080D191D2A1DA0
:101CE0003B1D56960D931D932D933C935997C81801
:101CF000D908EA08FB088C149D04AE04BF0478F2EE
:101D0000F10186889788A08CB18C8C0C9D1CAE1C30
:101D1000BF1C868A978AA08EB18E0E940C0861151E
:101D2000710581059105F9F075016401A9E0F6944A
:101D3000E794D794C794AA95D1F7F101028110E0F6
:101D400001501109222717FD2095322FC022D122E0
:101D5000E222F322C60ED71EE81EF91EC6A2D7A2A3
:101D6000E0A6F1A608C0F101118281E005C086E07D
:101D700003C085E001C080E00F900F900F900F909E
:101D8000DF91CF911F910F91FF90EF90DF90CF9057
:101D9000BF90AF909F908F907F906F905F904F908B
:101DA0003F902F900895EF92FF920F931F93CF9340
:101DB000DF93CDB7DEB7AC970FB6F894DEBF0FBE9A
:101DC000CDBF7C01AB018091BB009091BC00892B01
:101DD00069F1CE018196F70193838283BE016F5F23
:101DE0007F4FC7010E94A90981111DC089818823E5
:101DF000B9F08C8584FF1CC04D895E8960E070E07D
:101E0000BA01552744270B8D1C8D20E030E0402B74
:101E1000512B622B732BF7014483558366837783A1
:101E2000C7010E943708833019F003C086E001C063
:101E300084E0AC960FB6F894DEBF0FBECDBFDF9145
:101E4000CF911F910F91FF90EF900895CF92DF9265
:101E5000EF92FF920F931F93CF93DF93CDB7DEB72F
:101E6000AC970FB6F894DEBF0FBECDBF7C016B01FF
:101E70008091BB009091BC00892B09F4ADC0CE01CC
:101E80008196D70113969C938E93129761157105D5
:101E900011F083E022C0C7010E943708A3C0F701F8
:101EA000208131812F70332705E0220F331F0A95DF
:101EB000E1F700E210E0CE0101960E946F06811169
:101EC0008DC08981882309F48BC09C85853E91F45F
:101ED000C7010E94EE08811114C0D7011C964D91D4
:101EE0005D916D917C911F974115510561057105BB
:101EF000B1F605C08E3261F393FDEACF0BC08823A3
:101F000049F0F7011486158616861786833011F07E
:101F1000811168C0F6013996D7011C964D915D91EB
:101F20006D917C911F97452B462B472B09F447C099
:101F3000CE010196DF01AE01475F5F4FFC01619169
:101F4000CF01603269F0653009F465EE9D012F5FC5
:101F50003F4FF9016C938417950719F0D901EECF23
:101F6000FD012985203289F08EE28083CF0102961F
:101F700021832A85203229F0019622832B85203265
:101F800011F4FC0102C0238334968C85D601189687
:101F90008C9318974D8D5E8D6F8D78A14D935D93C9
:101FA0006D937C931397898D9A8D15969C938E9340
:101FB00014978F89988D17969C938E9316971082FD
:101FC000C7010E94EE08833069F4F7011486158674
:101FD0001686178680E006C086E004C081E091CFB7
:101FE00083E08FCFAC960FB6F894DEBF0FBECDBFA7
:101FF000DF91CF911F910F91FF90EF90DF90CF90E5
:10200000089510BC89B986E880BD8AB1886D8AB907
:1020100008955D9BFECF0895CF93DF9300D0CDB799
:10202000DEB72091BD002111FCCF89839A830E94E5
:10203000091021E02093BD008981E82F9A81F92FB2
:1020400081918CB9F093E000E093DF000F900F9046
:10205000DF91CF9108951F920F920FB60F92112426
:102060008F93EF93FF938CB18093E1008091E20016
:102070008F3110F01092E200E091E200F0E08091E8
:10208000E100E154FF4F80838091E2008F5F8093F5
:10209000E2008091E1008A3021F481E08093BE006B
:1020A00002C01092BE00FF91EF918F910F900FBE72
:1020B0000F901F9018951F920F920FB60F92112438
:1020C0008F939F93EF93FF93E091DF00F091E000F7
:1020D0008081882349F0CF0101969093E00080939E
:1020E000DF0080818CB902C01092BD00FF91EF919A
:1020F0009F918F910F900FBE0F901F90189580EBBE
:1021000087BB82E58DB91EB8089584E191E00197FF
:10211000F1F7000008958FEF8FB9779BFECF8FB155
:1021200008958FB9779BFECF8FB108950E94F40474
:102130000C94F4040E94F404811109C08CEC0E94F8
:102140002F0584E40E942F05B39BFECF02C081E0DF
:10215000089580E00895CF93DF930E94F4048CECFF
:102160000E942F058EEB0E942F050E943D05C82F6F
:10217000D0E00E943D059E01382BC901DF91CF912F
:102180000895A1E21A2EAA1BBB1BFD010DC0AA1FB8
:10219000BB1FEE1FFF1FA217B307E407F50720F0D0
:1021A000A21BB30BE40BF50B661F771F881F991F4B
:1021B0001A9469F760957095809590959B01AC0194
:1021C000BD01CF0108950E942511A59F900DB49FD8
:1021D000900DA49F800D911D112408952F923F9280
:1021E0004F925F926F927F928F929F92AF92BF9227
:1021F000CF92DF92EF92FF920F931F93CF93DF93D3
:10220000CDB7DEB7CA1BDB0B0FB6F894DEBF0FBE2F
:10221000CDBF09942A88398848885F846E847D847C
:102220008C849B84AA84B984C884DF80EE80FD807E
:102230000C811B81AA81B981CE0FD11D0FB6F894F4
:10224000DEBF0FBECDBFED010895A29FB001B39FC9
:10225000C001A39F700D811D1124911DB29F700DAF
:10226000811D1124911D0895283008F027E033279F
:10227000DA01990F311D87FD9160009661057105A6
:1022800039F432602E5F3D9330E32A95E1F70895EB
:102290009F3F30F080387105610509F03C5F3C5F7D
:1022A0003D93913008F08068911DDF93CF931F9389
:1022B0000F93FF92EF92192F987F9695E92F96959D
:1022C0009695E90FFF27EA54FF4F99273327EE240D
:1022D000FF24A701E70105900894079428F4360F1E
:1022E000E71EF81E491F511D660F771F881F991F93
:1022F0000694A1F70590079428F4E70EF81E491FED
:10230000561FC11D770F881F991F661F0694A1F7DE
:102310000590079428F4F80E491F561FC71FD11DBA
:10232000880F991F661F771F0694A1F705900794E1
:1023300020F4490F561FC71FD81F990F661F771F1C
:10234000881F0694A9F784911095177041F0D695CF
:10235000C79557954795F794E7941A95C1F7ECE51B
:10236000F0E06894159015913591659195910590DF
:102370007FE27395E118F10A430B560BC90BD009A4
:10238000C0F7E10CF11E431F561FC91FD01D7EF47C
:10239000703311F48A95E6CFE894015030F0080FBD
:1023A0000AF40027021708F4202F2395022F7A330E
:1023B00028F079E37D932A95E9F710C07D932A955B
:1023C00089F6069497956795379517951794E118B0
:1023D000F10A430B560BC90BD00998F023957E9157
:1023E00073957A3308F070E37C932013B8F77E91ED
:1023F00070617D9330F0839571E37D9370E32A954E
:10240000E1F71124EF90FF900F911F91CF91DF9191
:10241000992787FD90950895FC01059061507040C3
:102420000110D8F7809590958E0F9F1F0895FC019D
:102430006150704001900110D8F7809590958E0FF3
:102440009F1F08950F931F93CF93DF93182F092F8A
:10245000EB018B8181FD03C08FEF9FEF20C082FFD6
:1024600010C04E815F812C813D81421753077CF45F
:10247000E881F9819F012F5F3F4F398328831083C3
:1024800006C0E885F985812F0995892B29F72E81CA
:102490003F812F5F3F4F3F832E83812F902FDF910E
:1024A000CF911F910F910895A0E0B0E0EAE5F2E12D
:1024B0000C94FE10FE01359661917191AF018091EF
:1024C000E5009091E6000E94CA00E2E00C941A1127
:1024D000AEE0B0E0EEE6F2E10C94FC100D891E894E
:1024E00086E08C831A8309838FEF9FE79E838D8319
:1024F000AE01475E5F4F6F89788DCE0101960E94D5
:10250000CA00EF81F885E00FF11F10822E96E4E0FB
:102510000C941811FA01AA27283051F1203181F1C9
:10252000E8946F936E7F6E5F7F4F8F4F9F4FAF4FDB
:10253000B1E03ED0B4E03CD0670F781F891F9A1FEE
:10254000A11D680F791F8A1F911DA11D6A0F711DA2
:10255000811D911DA11D20D009F468943F912AE0AE
:10256000269F11243019305D3193DEF6CF01089596
:10257000462F4770405D4193B3E00FD0C9F7F6CFC7
:10258000462F4F70405D4A3318F0495D31FD40528F
:10259000419302D0A9F7EACFB4E0A6959795879525
:1025A00077956795BA95C9F7009761057105089504
:1025B0009B01AC010A2E06945795479537952795B0
:1025C000BA95C9F7620F731F841F951FA01D089548
:0425D000F894FFCFAD
:1025D40000000002000000005B0500000000140081
:1025E40068656C6C6F0A00257300646174612F6404
:1025F400616E612E74787400696E666F2F6F7069F6
:10260400732E7478740025640925642E25640A00E9
:1026140054203D2534642E25303464DF43004F6458
:082624006C61637A6E65000031
:00000001FF
