:100000000C942A000C9434000C9434000C943400AA
:100010000C9434000C9434000C9434000C94340090
:100020000C9434000C9434000C9434000C94340080
:100030000C9434000C9434000C9434000C94340070
:100040000C9434000C9434000C9434000C94340060
:100050000C94340011241FBECFE5D8E0DEBFCDBF25
:100060000E9436000C9475000C94000080E28ABB5C
:100070008BBB2FEF3FE593E0215030409040E1F7FC
:1000800000C000001BBA2FEF3FE79DE02150304039
:100090009040E1F700C000008BBB2FEF3FE79DE0F1
:1000A000215030409040E1F700C000001BBA2FEF14
:1000B0003FE593E0215030409040E1F700C0000060
:1000C0008BBB2FEF3FEB96E0215030409040E1F7A3
:1000D00000C000001BBA2FEF3FEB96E021503040EC
:0E00E0009040E1F700C00000C3CFF894FFCFBE
:00000001FF
