:100000000C9457000C9474000C9474000C947400BD
:100010000C9474000C9474000C9474000C94740090
:100020000C9474000C9474000C9474000C94740080
:100030000C9474000C9474000C9474000C94740070
:100040000C9474000C9474000C9474000C94740060
:100050000C9474006364696E6F70737578585B6597
:10006000666745464700616E006E66696E69747921
:1000700000CDCCCC3D0AD7233C17B7D13877CC2B59
:10008000329595E6241FB14F0A000020410000C8B8
:100090004200401C4620BCBE4CCA1B0E5AAEC59D39
:1000A0007448656C6C6F20576F726C64210011246A
:1000B0001FBECFE5D8E0DEBFCDBF10E0A0E6B0E0C8
:1000C000E0E7FEE002C005900D92AE36B107D9F729
:1000D00020E0AEE6B0E001C01D92A437B207E1F720
:1000E0000E9475060C9436070C94000020FD09C090
:1000F000FC0123FD05C022FF02C07383628351838C
:100100004083089544FD10C046FD10C0DB01FC0192
:10011000AA0FBB1FEE1FFF1F1094D1F76A0F7B1FA2
:100120008E1F9F1F31E003C033E001C034E0660F33
:10013000771F881F991F3150D1F7620F711D811DE4
:10014000911D08950F931F93CF93DF938C01C801E6
:100150000E94DC06EC0197FD08C00E94C106892BB5
:10016000B1F7B801CE010E941A07CE01DF91CF91FD
:100170001F910F9108956F927F929F92AF92BF92BD
:10018000CF92DF92EF92FF920F931F93CF93DF9363
:100190001F92CDB7DEB78C013B015A0129830E9423
:1001A000DC06AC01552729814B32510521F04D3237
:1001B000510581F4206831E0631A710861147104FB
:1001C00011F480E07FC0C80129830E94DC062981E8
:1001D00097FDF7CFE22FED7F9E2E322F307379F50A
:1001E000803369F57301F1E0EF1AF108E114F104CD
:1001F00009F454C0C80129830E94DC06298197FDB7
:100200004DC0382F3F7D383581F4292D2264922E40
:1002100032E0631A71086114710409F43FC0C80127
:100220000E94DC0697FF0BC039C026FF04C0E92DF1
:10023000E2609E2E03C0F92DF2619F2E3701C12C82
:10024000D12C760120ED280F283080F094FE04C0D8
:10025000B8010E941A071FC02A3040F096FEF8CF5E
:100260002F7D3FEE320F363098F72750492DC701CA
:10027000B6010E9482006B017C01292D2260922E22
:1002800031E0631A71086114710459F0C8010E94C9
:10029000DC0697FFD7CF91FC04C093CFC12CD12CA3
:1002A000760197FE08C0F094E094D094C094C11CED
:1002B000D11CE11CF11C292DB701A601C5010E942A
:1002C000760081E00F90DF91CF911F910F91FF9009
:1002D000EF90DF90CF90BF90AF909F907F906F9006
:1002E0000895A0E2B0E0E7E7F1E00C948C065C0131
:1002F0004B017A018E010F5F1F4F680180E2F80108
:1003000011928A95E9F7F501638080E090E0712C05
:10031000412CB0E041E050E0F90163FC559063FEF0
:1003200051908F01A52D9F01511003C080E090E0F6
:100330007FC0FEE55F1202C0009761F16B2F70E095
:10034000681779074CF46DE5561661F1EDE25E121F
:1003500003C0442009F103C0411001C0752C6A2F6D
:10036000669566956695F601E60FF11D6A2F677032
:100370008A0102C0000F111F6A95E2F7B80170816F
:10038000762B7083A71559F0A71510F4AF5FE7CF50
:10039000A150E5CFB1E004C04424439401C0412CF6
:1003A0000196BACF442019F08E8180628E83B111FC
:1003B00003C07724739419C0F601CE018196208181
:1003C00020952193E817F907D1F7F3CFE114F10451
:1003D00029F0F7018083C70101967C0191E0891A19
:1003E000910881149104F1F0712CC5010E94DC0682
:1003F00097FD16C0282F269526952695F601E20F23
:10040000F11D208130E0AC014770552702C03595C1
:1004100027954A95E2F720FDD9CFB5010E941A072A
:10042000711084CFE114F10411F0F7011082C801BA
:10043000A096E0E10C94A8062F923F924F925F9213
:100440006F927F929F92AF92BF92CF92DF92EF9284
:10045000FF920F931F93CF93DF9300D000D000D073
:10046000CDB7DEB76C018B011A010E94DC069E83BA
:100470008D8399278B32910529F08D9799F480E827
:10048000982E01C0912C015011090115110511F48C
:1004900080E036C1C6010E94DC069E838D8397FFF3
:1004A00002C0F6CF912C8D819E810E94C9068936AB
:1004B000910541F08E369105D9F5B6E66B2EB0E088
:1004C0007B2E04C0A9E66A2EA0E07A2E8FEF681A70
:1004D000780AF3013197B490BB20F1F00150110973
:1004E0000115110571F0C6010E94DC067C0197FD23
:1004F00008C00E94C906B81649F3B601C7010E9498
:100500001A072CE6621620E0720609F0C1CF80E0DF
:1005100090E0A0E8BFE709C099E6691690E0790687
:10052000B1F780E090E0A0ECBFE7BC01CD01D8C0FE
:10053000412C512C3201E12CF12C2D8120532A30F9
:1005400028F5E92DE260BE2E892D887092FE06C046
:10055000811123C0FFEFEF1AFF0A1FC0882319F093
:1005600081E0E81AF10840E2C301B2010E94820072
:100570002B013C0198E9491699E95906690699E168
:10058000790658F0E92DE660BE2E07C02E3FA1F493
:1005900093FC12C0F92DF860BF2E0150110901150E
:1005A000110549F0C6010E94DC069E838D839B2CB9
:1005B00097FD02C0C2CF9B2C91FE6ACF8D818F7DAB
:1005C000853409F056C0580121E0A21AB108A114DF
:1005D000B10409F45DCFC6010E94DC069E838D83C1
:1005E00097FD56CF99278B32910529F08D9781F48D
:1005F000892D8061982E580192E0A91AB108A114A2
:10060000B10409F445CFC6010E94DC069E838D83A8
:100610008D819E81C0970A9708F03ACF8501A12C61
:10062000B12CB501882777FD8095982F2D81205317
:1006300040E20E948200AB01BC015A010150110945
:100640000115110571F0C60149835A836B837C83C0
:100650000E94DC069E838D83C09749815A810A9748
:1006600000F394FE04C0AA24BB24A41AB50AEA0C21
:10067000FB1C012B41F0ED81FE81F7FD04C0B601AA
:10068000CF010E941A07C301B2010E94D004F7FEF5
:1006900008C0F194E194F108F5E8AF2EF0E0BF2E28
:1006A00004C0EDE9AE2EE0E0BE2E6501F8E1CF1A00
:1006B000D10800E210E0E016F10650F0F5012591B6
:1006C0003591459154910E940D05E01AF10AF3CF3E
:1006D00024E0A21AB10816950795AC14BD0459F789
:1006E00097FE05C0DC01CB01B058BC01CD0121143F
:1006F000310429F0F101608371838283938381E067
:1007000026960FB6F894DEBF0FBECDBFDF91CF9116
:100710001F910F91FF90EF90DF90CF90BF90AF901F
:100720009F907F906F905F904F903F902F90089593
:10073000A1E0B0E0EEE9F3E00C948C068C012B0113
:100740007A01FC0117821682A12CF801D380F201F4
:10075000D3FC8591D3FE8191382F2F01882309F492
:1007600016C190E039830E94C1063981892B21F09E
:10077000C8010E94A200E9CF353241F4F201D3FC56
:100780003591D3FE31912F01353269F4C801398397
:100790000E94DC06398197FDF8C03817B1F2B80124
:1007A0000E941A07F4C03A3241F4D3FC3591D3FECB
:1007B00031912F01BB24B39401C0B12C812C912C19
:1007C00020ED230F2A3088F4FB2DF260BF2EB401F8
:1007D00080E090E040E20E9482004B01F201D3FCF5
:1007E0003591D3FE31912F01EBCFB1FE04C08114BE
:1007F000910421F4CCC088248A94982C383619F0BE
:100800003C3661F014C0F201D3FC3591D3FE319136
:100810002F01383661F4FB2DF860BF2E8B2D8460DC
:10082000B82EF201D3FC3591D3FE31912F01332341
:1008300009F4ADC0632F70E084E590E039830E9435
:10084000D1063981892B09F4A2C0B0FC07C0F70199
:10085000C080D180C70102967C0102C0C12CD12C7E
:100860003E3651F4F8014681578160E070E02B2D4F
:10087000C6010E94760069CF3336C9F4B1FC03C0CB
:1008800088248394912CC8010E94DC0697FD7DC0CA
:10089000C114D10429F0F6018083C60101966C01D0
:1008A00091E0891A91088114910469F76AC03B3577
:1008B00059F49201A601B401C8010E9471012C01F2
:1008C000009709F05EC058C0C80139830E94A20099
:1008D000398197FD5AC03F36F1F140F43436B9F111
:1008E0003936E1F1383509F040C02DC03337B9F061
:1008F00018F4303741F139C0353749F1383719F13B
:1009000034C0C114D10429F0F6016082C6010196F9
:100910006C0191E0891A91088114910471F0C80169
:100920000E94DC063C0197FD08C00E94C106892B8D
:1009300041F3B801C3010E941A07C114D10409F19F
:10094000F60110821EC0FB2DF064BF2E07C08B2D58
:100950008062B82E03C09B2D9061B92E2B2DA6016D
:10096000B401C8010E94BB0005C0A601B401C801C2
:100970000E941C02811105C0F8018381807329F453
:1009800006C0B0FCE2CEA394E0CEAA2019F08A2DD6
:1009900090E002C08FEF9FEF2196E0E10C94A80653
:1009A000E89409C097FB3EF4909580957095619509
:1009B0007F4F8F4F9F4F9923A9F0F92F96E9BB27BF
:1009C0009395F695879577956795B795F111F8CF3B
:1009D000FAF4BB0F11F460FF1BC06F5F7F4F8F4FA6
:1009E0009F4F16C0882311F096E911C0772321F09C
:1009F0009EE8872F762F05C0662371F096E8862F34
:100A000070E060E02AF09A95660F771F881FDAF78A
:100A1000880F9695879597F908950BD078C069D07F
:100A200028F06ED018F0952309F05AC05FC0112449
:100A3000A2C07ED0A0F3959FD1F3950F50E0551F33
:100A4000629FF001729FBB27F00DB11D639FAA2723
:100A5000F00DB11DAA1F649F6627B00DA11D661F72
:100A6000829F2227B00DA11D621F739FB00DA11D93
:100A7000621F839FA00D611D221F749F3327A00D4D
:100A8000611D231F849F600D211D822F762F6A2FE9
:100A900011249F5750408AF0E1F088234AF0EE0F6E
:100AA000FF1FBB1F661F771F881F91505040A9F77B
:100AB0009E3F510570F014C05EC05F3FECF3983E5E
:100AC000DCF3869577956795B795F795E7959F5FE2
:100AD000C1F7FE2B880F911D9695879597F908957C
:100AE00097F99F6780E870E060E008959FEF80ECE1
:100AF000089500240A941616170618060906089584
:100B000000240A9412161306140605060895092EE9
:100B10000394000C11F4882352F0BB0F40F4BF2B58
:100B200011F460FF04C06F5F7F4F8F4F9F4F089598
:100B300057FD9058440F551F59F05F3F71F047958E
:100B4000880F97FB991F61F09F3F79F08795089573
:100B5000121613061406551FF2CF4695F1DF08C092
:100B6000161617061806991FF1CF869571056105AF
:100B700008940895E894BB2766277727CB0197F957
:100B80000895DA98DB9A2BB3982F907F2F70922BD1
:100B90009BBB34E03A95F1F7DB98E4E1F1E0319763
:100BA000F1F70000DB9A2BB3F0E18F9FC001112415
:100BB0002F70282B2BBB34E03A95F1F7DB9884E1BA
:100BC00091E00197F1F70000089581E00E94C105CE
:100BD00089E995E10197F1F700C008958FEF8ABB8D
:100BE0001BBA2FEF8FEA91E0215080409040E1F74F
:100BF00000C00000DA9893E0DB9A8BB38F708063BB
:100C00008BBBE4E0EA95F1F7DB98EFEFF5E3319782
:100C1000F1F700C00000915079F7DB9A8BB38F7029
:100C200080628BBBF4E0FA95F1F7DB9884E191E008
:100C30000197F1F7000088E20E94C1058CE00E9454
:100C4000C10586E00E94C1050C94E505DA9ADB9A9D
:100C50002BB3982F907F2F70922B9BBB34E03A954B
:100C6000F1F7DB98E4E1F1E03197F1F70000DB9A6E
:100C70002BB3F0E18F9FC00111242F70282B2BBBC9
:100C800034E03A95F1F7DB9884E191E00197F1F7D0
:100C900000000895605890E4899F600D1124862F0C
:100CA0000C94C105CF93DF931F92CDB7DEB7498374
:100CB0000E944A064981842F0F90DF91CF910C94B6
:100CC0002606CF93DF93FC018491EF0121968823C0
:100CD00021F00E942606FE01F7CFDF91CF91089503
:100CE0000E94260680E090E0089580E690E09093D0
:100CF0007100809370000E94EE0581EA90E00E94EE
:100D0000610640E550E067E081E00E94520680E025
:100D100090E008952F923F924F925F926F927F9250
:100D20008F929F92AF92BF92CF92DF92EF92FF92FB
:100D30000F931F93CF93DF93CDB7DEB7CA1BDB0BA7
:100D40000FB6F894DEBF0FBECDBF09942A8839884C
:100D500048885F846E847D848C849B84AA84B98453
:100D6000C884DF80EE80FD800C811B81AA81B9815F
:100D7000CE0FD11D0FB6F894DEBF0FBECDBFED0173
:100D80000895911170C0803219F089508550D0F7C4
:100D900008959111089581548A5108F4805E855A0E
:100DA0000895FC010590061621F00020D9F7C00136
:100DB00008953197CF010895CF93DF93EC012B81F4
:100DC00020FF33C026FF0AC02F7B2B838E819F819B
:100DD00001969F838E838A8190E029C022FF0FC0F5
:100DE000E881F9818081992787FD9095009719F412
:100DF00020622B831AC03196F983E8830EC0EA85FE
:100E0000FB85099597FF09C02B81019611F480E1BC
:100E100001C080E2822B8B8308C02E813F812F5F2F
:100E20003F4F3F832E83992702C08FEF9FEFDF91C3
:100E3000CF910895FB01238120FF12C026FD10C031
:100E40008F3F3FEF930761F082832F7D20642383E0
:100E500026813781215031093783268399270895C8
:100E60008FEF9FEF0895992788270895F894FFCF73
:0E0E70000000000200000000700600000000FC
:00000001FF
