:100000000C9448000C9465000C9465000C946500F9
:100010000C9465000C9465000C9465000C946500CC
:100020000C9465000C9465000C9465000C946500BC
:100030000C9465000C9444010C9465000C947401BC
:100040000C9465000C9465000C9465000C9465009C
:100050000C9465004E414E494E495459494E46CD87
:10006000CCCC3D0AD7233C17B7D13877CC2B32956F
:1000700095E6241FB14F0A000020410000C842004D
:10008000401C4620BCBE4CCA1B0E5AAEC59D740017
:1000900011241FBECFE5D8E0DEBFCDBF10E0A0E643
:1000A000B0E0EEE2FBE002C005900D92A436B1078D
:1000B000D9F720E0A4E6B0E001C01D92AB38B2074A
:1000C000E1F70E94B4000C9495050C94000020E028
:1000D00030E0281739074CF4ECECFAE03197F1F7EF
:1000E00000C000002F5F3F4FF4CF089520E03EEFA7
:1000F00047ED56E40E94210320E030E040EA51E45D
:100100000E94FA010E946202CB01089520E030E0D3
:1001100040E05FE30E94210320E030E044EB52E442
:100120000E94FA0123E333E343EF5FE30E942103DC
:100130002DEC3CEC4CEC5EE30E94960126E636E6A4
:1001400046E65FE30E94960120E03EEF47ED56E46D
:100150000E94210320E030E040EA51E40E94FA01CD
:100160000E946202CB0108958FB582688FBD8FB562
:100170008E7B8FBD8EB58A618EBD8EB58A7F8EBD1A
:100180008FEF9BE697BD86BD8D9A83B78A6783BF45
:1001900083B78A7F83BF1CBEBB9A85E00E94210182
:1001A000789400E010E0C1E0D0E080E2F82E8CB757
:1001B0008C0F8CBF8BE090E00E9467008CB78E3F65
:1001C00019F4D195C195D1098CB7811103C0D1958E
:1001D000C195D109B801882777FD8095982F0E9495
:1001E00095020E9486009BBD8ABD8091640081308B
:1001F000F1F643E050E060E670E085E690E00E94B2
:100200008803892B39F489E690E00E9484030E94D8
:1002100062028B01B801882777FD8095982F0E9494
:1002200095020E9486009BBD8ABD109264001092C8
:100230008800E5E6F0E0DF018F2D1D928A95E9F751
:10024000B6CF10BC89B986E880BD8AB1886D8AB9FD
:1002500008955D9BFECF0895CF93DF9300D0CDB777
:10026000DEB789839A830E9429018981E82F9A81C8
:10027000F92F81918CB9F0938600E09385000F905F
:100280000F90DF91CF9108951F920F920FB60F92AA
:1002900011248F93EF93FF938CB18093870080910B
:1002A00088008F3110F010928800E0918800F0E013
:1002B00080918700EB59FF4F8083809188008F5F8A
:1002C00080938800809187008A3021F481E08093B8
:1002D000640002C010926400FF91EF918F910F9023
:1002E0000FBE0F901F9018951F920F920FB60F928E
:1002F00011248F939F93EF93FF93E0918500F091EA
:1003000086008081882341F0CF010196909386007A
:100310008093850080818CB9FF91EF919F918F919F
:100320000F900FBE0F901F9018955058BB27AA270B
:100330000ED04DC13ED130F043D120F031F49F3F7B
:1003400011F41EF433C10EF4E095E7FB29C1E92F47
:100350004FD180F3BA17620773078407950718F027
:1003600071F49EF567C10EF4E0950B2EBA2FA02D07
:100370000B01B90190010C01CA01A0011124FF2752
:10038000591B99F0593F50F4503E68F11A16F0404D
:10039000A22F232F342F4427585FF3CF469537954C
:1003A0002795A795F0405395C9F77EF41F16BA0B11
:1003B000620B730B840BBAF09150A1F0FF0FBB1FBF
:1003C000661F771F881FC2F70EC0BA0F621F731F08
:1003D000841F48F4879577956795B795F7959E3F65
:1003E00008F0B3CF9395880F08F09927EE0F9795F3
:1003F000879508950CD0EBC0E3D040F0DAD030F010
:1004000021F45F3F19F0CCC0511115C1CFC0F0D01D
:1004100098F39923C9F35523B1F3951B550BBB27CB
:10042000AA2762177307840738F09F5F5F4F220F78
:10043000331F441FAA1FA9F333D00E2E3AF0E0E871
:1004400030D091505040E695001CCAF729D0FE2FBD
:1004500027D0660F771F881FBB1F2617370748074F
:10046000AB07B0E809F0BB0B802DBF01FF27935805
:100470005F4F2AF09E3F510568F092C0DCC05F3F9D
:10048000ECF3983EDCF3869577956795B795F795ED
:100490009F5FC9F7880F911D9695879597F90895E5
:1004A000E1E0660F771F881FBB1F62177307840781
:1004B000BA0720F0621B730B840BBA0BEE1F88F790
:1004C000E095089504D06894B111B5C0089598D00E
:1004D00088F09F5790F0B92F9927B751A0F0D1F02D
:1004E000660F771F881F991F1AF0BA95C9F712C0B7
:1004F000B13081F09FD0B1E008959CC0672F782F74
:100500008827B85F39F0B93FCCF386957795679522
:10051000B395D9F73EF490958095709561957F4F8E
:100520008F4F9F4F0895E89409C097FB3EF4909534
:100530008095709561957F4F8F4F9F4F9923A9F0BC
:10054000F92F96E9BB279395F6958795779567954B
:10055000B795F111F8CFFAF4BB0F11F460FF1BC08F
:100560006F5F7F4F8F4F9F4F16C0882311F096E922
:1005700011C0772321F09EE8872F762F05C06623D0
:1005800071F096E8862F70E060E02AF09A95660F89
:10059000771F881FDAF7880F9695879597F9089542
:1005A00097F99F6780E870E060E008959FEF80EC26
:1005B000089500240A9416161706180609060895C9
:1005C00000240A9412161306140605060895092E2F
:1005D0000394000C11F4882352F0BB0F40F4BF2B9E
:1005E00011F460FF04C06F5F7F4F8F4F9F4F0895DE
:1005F00057FD9058440F551F59F05F3F71F04795D4
:10060000880F97FB991F61F09F3F79F087950895B8
:10061000121613061406551FF2CF4695F1DF08C0D7
:10062000161617061806991FF1CF869571056105F4
:1006300008940895E894BB2766277727CB0197F99C
:1006400008950BD0C4CFB5DF28F0BADF18F095239A
:1006500009F0A6CFABCF1124EECFCADFA0F3959F50
:10066000D1F3950F50E0551F629FF001729FBB2799
:10067000F00DB11D639FAA27F00DB11DAA1F649F45
:100680006627B00DA11D661F829F2227B00DA11DF8
:10069000621F739FB00DA11D621F839FA00D611D7E
:1006A000221F749F3327A00D611D231F849F600D9F
:1006B000211D822F762F6A2F11249F5750408AF0D8
:1006C000E1F088234AF0EE0FFF1FBB1F661F771F64
:1006D000881F91505040A9F79E3F510570F060CFA0
:1006E000AACF5F3FECF3983EDCF38695779567954C
:1006F000B795F795E7959F5FC1F7FE2B880F911D82
:100700009695879597F90895662777270C94960311
:10071000FB01DC014150504030F08D910190801977
:1007200019F40020B9F7881B990B0895A0E0B0E0F8
:10073000ECE9F3E00C9455058B016115710521F08E
:10074000DB018C9311969C93EC015E01BFEFAB1A19
:10075000BB0A7501C8808C2D90E00E94F904892B9A
:1007600011F0E501F2CFEDE2CE1208C07E01F2E019
:10077000EF0EF11CC980DD24D39409C02BE2C21214
:1007800005C07E0142E0E40EF11CC980D12CE701D6
:10079000219743E050E06CE570E0CE010E94010536
:1007A000892BC1F4239645E050E067E570E0CE0167
:1007B0000E940105892B09F425960115110519F0F0
:1007C000D801CD93DC93D11006C160E070E080E8E1
:1007D0009FE70AC143E050E064E570E0CE010E946B
:1007E0000105892B59F40115110509F4F9C0B2E08E
:1007F000EB0EF11CF801F182E082F2C0F70160E03B
:1008000070E0CB01C0E0D0E07F01A0EDAA2EAC0CDF
:1008100029E02A1530F14D2D4260B42E2D2D28707F
:10082000D2FE04C0211125C0219623C02111219799
:10083000A5E0B0E09B01AC010E944405660F771F64
:10084000881F991F6A0D711D811D911D6839A9E9C5
:100850007A078A07A9E19A0760F0BD2DB660BB2E22
:1008600008C02EEFA2120AC0D3FC50C04D2D486024
:10087000B42E3196D701CC90DB2CC6CF2C2D2F7DFA
:10088000253409F043C0A081AD3241F4BD2DB061E3
:10089000DB2E7F0122E0E20EF11C0CC07F01AB32A7
:1008A00031F04FEFE41AF40A21E030E006C0A2E094
:1008B000EA0EF11CA18122E030E0A053AA3018F02A
:1008C000E21AF30A23C0F70120E030E02038BCE050
:1008D0003B075CF4A901440F551F440F551F240F1B
:1008E000351F220F331F2A0F311DAF014F5F5F4F9E
:1008F0007A01A081A053AA3010F4FA01E7CFD4FE08
:1009000003C0319521953109C20FD31FD1FE09C013
:100910000115110531F0E1E0EE1AF108D801ED9270
:10092000FC920E9493022D2D2370233019F04B016D
:100930005C0106C04B015C01B7FAB094B7F8B09403
:1009400020E030E0A901C501B4010E941905882307
:1009500009F43EC0D7FF06C0D195C195D10903E780
:1009600010E002C00BE810E06801B8E1CB1AD10832
:1009700090E2E92EF12CCE15DF0574F0F8012591F7
:10098000359145915491C501B4010E9421034B0159
:100990005C01CE19DF09EFCF04501109F594E794FB
:1009A0000C151D0541F78A2D880F8B2D881F8F3F51
:1009B00049F020E030E0A901C501B4010E94190509
:1009C000811106C082E290E090938A0080938900B2
:1009D000C501B40109C060E070E080E89FEF04C089
:1009E00060E070E080EC9FE7CDB7DEB7ECE00C9400
:1009F0007105911146C0803219F089508550D0F7A9
:100A00000895FB01DC014150504088F08D91813404
:100A10001CF08B350CF4805E659161341CF06B35F5
:100A20000CF4605E861B611171F3990B0895881BAD
:100A3000FCCF03D008F481E00895990F0008550F0A
:100A4000AA0BE0E8FEEF16161706E807F907C0F054
:100A500012161306E407F50798F0621B730B840B5C
:100A6000950B39F40A2661F0232B242B252B21F436
:100A700008950A2609F4A140A6958FEF811D811DD6
:100A800008959927882708950E948605A59F900DAF
:100A9000B49F900DA49F800D911D112408952F9255
:100AA0003F924F925F926F927F928F929F92AF92FE
:100AB000BF92CF92DF92EF92FF920F931F93CF934B
:100AC000DF93CDB7DEB7CA1BDB0B0FB6F894DEBFE2
:100AD0000FBECDBF09942A88398848885F846E8408
:100AE0007D848C849B84AA84B984C884DF80EE8052
:100AF000FD800C811B81AA81B981CE0FD11D0FB65B
:100B0000F894DEBF0FBECDBFED010895A29FB001E6
:100B1000B39FC001A39F700D811D1124911DB29F31
:0E0B2000700D811D1124911D0895F894FFCFD2
:040B2E006B61740083
:00000001FF
